:20000000483F0020DD710000FDC90110FDC90110FDC90110FDC90110FDC90110FDC90110E1
:1C002000FDC90110FDC90110FDC90110FDC90110FDC90110FDC901103BCA0110A4
:20003C002DE9F04F09AFADF13C0D00900292388801911E46ADF83400101C08BF002000F0FA
:20005C00828100274FF0010B00F10109B846DA466BE1252940F062811078521C02922D286A
:20007C0018BFADF8228004D11078ADF822B0521C029230281CBF4246434605D1114608787F
:20009C005B465A46491C02912A284FF0FF3516D128460B93346809900299CDF81C80E01C26
:2000BC004B1C20F00300001D306050F8044C08780293002C44BFADF822A0644212E0444698
:2000DC0009E0610001EBC40140180299A0F130040878491C0291302801DB3A28F1DB0B93D9
:2000FC00294609912E282BD10299087843462A2801F10101029111D1099330680794C01C7F
:20011C0020F00300001D306050F8045C002D48BF454608780995491C029112E045460AE01F
:20013C00690001EBC50140180299A0F1300508782B46491C0291302801DB3A28F0DB0993E9
:20015C0007940AB122460B926C2804D04C2818BFADF8208005D102990878ADF820A0491C75
:20017C00029103A9CDF8288007AB0E9164280C9300F08B80692800F08880BDF834C0752871
:20019C0072D078286ED06F286AD0702850D063283DD073281ED0019802990128A1F1010188
:2001BC00029115D96B490C68B5F1FF3F03D0A84288BF6D1C00D8019D0995684602A9324624
:2001DC0007ABA047C71902990A9801F1010974E040462AE030680299C01C20F00300001D2E
:2001FC00306050F8040CBCF1000F01F10109014608B956A001460E9109F096F90A90B5F197
:20021C00FF3F5BD0A842C4BF281C0A9056E03068C01C20F00300001D306010F8040C5D46E9
:20023C008DF80C0002990A95584601F1010945E0082035680B90E81C20F00300001D3060F4
:20025C0050F8041C0822102307A805F09BFB401E0E904021017002990E9801F1010929E06F
:20027C00082302E0102300E00A230299306801F10109C01C20F00300001D306050F8041CE2
:20029C00AA42BCBF2A1C0B9210E00299306801F10109C01C20F00300001D306050F8041CD5
:2002BC00AA42BCBF2A1C0B926FF0090307A805F069FB0E900C9D281A0A90079CBDF8225078
:2002DC00241A65B906E06846202101AA08F028F9079C7F1C641E0794F5D50A9800E00794CB
:2002FC000546401E0A9075B9BDF82200E8B10798401E079019D46846202101AA08F010F9E5
:20031C0007987F1CF4E70E98411C0E91017801AA684608F005F90A987F1CE1E7684601AAE4
:20033C0008F0FEF87F1C09F101094A46029812F8011C401C002902907FF48BAE009808B1AF
:20035C004146017038460FB0BDE8F08F286E756C6C2900C0D0A100002DE9FE43AF4C0F4644
:20037C000646F80B80F03581B80880F0C7806069B90F67D2A07A002848D1380948D30025CF
:20039C00657001262672284608F07AFCA44809F0FFF9A4492A4604F14C0009F01FFB60796A
:2003BC0001281AD1A079C0B99F4E306870B109F093F86169236A3268401A000BE061C018E2
:2003DC00B0EBC21F28BF256208D2206204F1C8004FF0005109F012F831E0667104F1380155
:2003FC0040F60900088094F8450000F0F00040F0010084F84500658794F8440000F0F000DB
:20041C0084F84400E563894E316018E0380914D2B80BC0F0FB8004F1280009F0EAFA061C27
:20043C0008D0706830B17568F068B6F91C1082A20CCAA84727F40057E8E00020A07227F093
:20045C000807E3E0D8B1042007F050FFB8B109F043F8A0616169814226BF401A401E401A99
:20047C00000BF060F06840F6C41100F58D708142F06003D340F2EE22824200D9F160002572
:20049C00D6F818C06561BCF1000F0FD094F8450010F00F0F0AD1708C40F60901814205D19A
:2004BC0067A20CCA30466FF48071E047604904F14C002A4609F092FAA07950B10220ADF890
:2004DC000000684608F0ECFBA571BDF80800A4F8A000012060702079A846401C20711920C6
:2004FC0084F8078009F0C2F8756925B156A20CCA30464146A84727F0005787E004F13009B9
:20051C00484609F076FA061C5AD007F0E6F94FF00008B269C6F818807068B8B1F07F42F00C
:20053C000202002300F00700401E07D0401E03D0801E06D146A002E047A000E048A090E8B7
:20055C000C007568F068B6F91C10A84700F08CF80546B4F93600401C6FF31F30E086206BD4
:20057C001F30017801F07F010170484608F0CEFE284600F07DF8F068B0F99410B4F93620E8
:20059C0091421DD1217801291AD090F8965095B9056885B1E1680968B1F1FF3F10D025498A
:2005BC0009687030B5FBF1F100F066F8F068703000F066F804E080F89680404605F0F8FF04
:2005DC00484609F016FA27F0020708B147F002071CE000F049F8014604F12C0009F009FABE
:2005FC000646B569084600F043F8A8080CD25EB1B069A843B061706830B12A46F068B6F91A
:20061C001C1075680023A84727F4804727B104F1C800394608F0F2FEBDE8FE8370140020FB
:20063C002D5C0000618A0000C42C002000100440A52D0000B8A1000000000000200000007B
:20065C00000000000000000200000000000000040000000000000010000000000000004028
:20067C000000000000000020DFF800F045C10110DFF800F015C20110DFF800F0BDC201105A
:20069C00DFF800F0DFBF01102DE9FE430646DFF8DC82DFF8DC92B2780024101C00F035818B
:2006BC00801E00F00D81401E012840F2E180801E00F0A880401E7BD0401E59D0083800F0D2
:2006DC004681801E40F046814546B08895F83E70ADF80000052F45D001208DF80A0005F110
:2006FC00CC0009F08AF995F83E0001281BD0042819D0032806D0022804D0F2883189708976
:20071C00B38907E0B5F84020B5F84210B5F84400B5F84630ADF80220ADF80410ADF806004F
:20073C00ADF8083020E0B5F84000F1888842D8BF081CADF802003189B5F842008842D8BF24
:20075C00081CADF804007189B5F844008842D8BF081CADF80600B5F84630B0898342D8BFDD
:20077C00031CDDE78DF80A40684609F029F8F1E0454605F1F00009F040F97078002840F02F
:20079C00E980F088E882308928837089688305F1CC0008F053FF002840F0DC80AB6A002BAA
:2007BC0000F0D8801B68E88A298B6A8B9847D1E0B08808F0A5F845462146062205F1380092
:2007DC0004F09EFEEC822C836C83B079687305F1CC0009F012F905F1F00009F00EF901248C
:2007FC004FF6FF706F79A8824FB9B079082814BF04200520A870204608F0B8FDAAE00320C2
:20081C00A870A7E0707858BB311D0A68454605F138000260898881800627AF707089A882C6
:20083C00F089E882308A2883708A6883F0784446287394F83E00012818BF02280AD11F20D4
:20085C0006F024FE4FF47A71024604F1CC00514306F0B8FFF0787289311D06F043FF7BE0A8
:20087C00707831286FD14D4604202870204623E07778002F67D14546698AA878032A13D01F
:20089C002A796F7921B9012A14BF6C712C7106E0174304D005F1A80006F094FFA8780728D5
:2008BC0014BF0420062007E0062807D02879002808BF0324DAD00220A8704DE00724D5E764
:2008DC007078751C00283ED14246F7789078D1799FB9022816D0072814D0062802D15179BD
:2008FC0001290FD103280DD002F1A80008F0A6FE40B9012008F03AFD04E08732204606F051
:20091C00DBF828702878F0B924E07078D8B945460220102105F1480207F066F903201021C2
:20093C0005F1580207F060F9F61C05F12C00B7883168878005F1680201600120A979A870CC
:20095C0006F0BAF840B108204D46287004E0B08808F02AFF012C06D14546686A18B10168BF
:20097C0009B1A8788847BDE8FE83C046980E00209A0E0020F8B5A0F2013517460E46022DA3
:20099C0040F20C818649874C874A884B2D1F0F2D04D9143D4AD0AD1E1CD011E0DFE815F0F2
:2009BC00BA00B500EB00DB00AE00A700FE009F00980010001000900086007A006F006200DB
:2009DC00282880F2EB80022E40F0E880398806F0B9FFF8BD012E40F0E1800A4690780128A1
:2009FC0000F0DC80D1783878D07081B9002800F0D5801078012800F0A080042800F09D80B5
:200A1C00062800F09A80052800F09780F8BD3878002840F0C3801078032800F09980072863
:200A3C0000F09680052800F09380F8BD012E40F0B5803878012840F0B180254605F1F00090
:200A5C0008F0FCFD002840F0A98004F13E01002004F07AFE002840F0A18004F1CC0008F016
:200A7C00CCFFF8BD022E40F0998038880A28C0F29580B0F5486F00F39180114614E0022ECD
:200A9C0040F08C803888B0F5FA7F80F2878011460880F8BD022E40F08180388806287DDB6C
:200ABC00B0F5486F7ADC1946891CF1E7022E75D13888062872DBB0F5486F6FDC1946E7E707
:200ADC00012E6BD13878062868DA1146891F0CE0012E63D13878042860DA093105E0012EBD
:200AFC005CD13878082859DA08310870F8BD012E54D13878042851DAC91DF6E7012E4DD1C9
:200B1C00387804284ADC891DEFE7022E46D138881031BDE7012E41D10A46D07801283DD040
:200B3C0091783878907061B9002837D01078012803D0042818BF052830D1012008F016FCB7
:200B5C00F8BD387850BB1078022818BF052825D108F024FDF8BD254600211F2205F1870441
:200B7C00204604F0CDFC39463246204603F07EFE0020EE710EE0254600211F2205F16804CE
:200B9C00204604F0BDFC39463246204603F06EFE0120AE713146224605F08EFFF8BDC0460E
:200BBC009A0E0020980E0020DC0E0020D80E00202DE9F84F82468548DFF804923538006847
:200BDC00800880F0EE8007F09DFD064683480830D0F8008000254FEA2874641C5FEA9850C0
:200BFC000AD2C6F13E0016F10A0F4FEAE000D8BF08208442B8BF041C6E485FEA98610FD2DA
:200C1C005FEA58610CD38346DBF80000C0F3042008F07EFD0746DBF80000C0F304600CE0CE
:200C3C0083465BF8D00CC0F3046008F071FD0746ABF513700068C0F3044008F069FDE719F6
:200C5C008346162F05DA17F10A0FB8BF6FF0090700E01527584A594807F01F0141F4F85190
:200C7C001180006810F0030F18BF0125C00828BF45F00205BAF1000F18BF45F00405494607
:200C9C0091F90700301A052804DA8879A84208BF888865D0DFF82CC10F2EA6F10F0E26DBA5
:200CBC000EEB0610A0F1F00E4FEA2E20072888BF07200446062C88BF06245CF8249004223B
:200CDC00634602EB84029A58EC08A2EB090202F0FF0324BFC2F307242344AC0824BFC2F3F4
:200CFC00074423446C0828BF03EB126301E0002318465CF820C0EC080CF0FF0224BFCCF33F
:200D1C0007242244AC0824BFCCF3074422446C0828BF02EB1C629BB2AEEB00246343BBEB03
:200D3C00070003F1800302EB1322D8BF012008F0FF07342343437B43B3FBF2F04FF6FF7260
:200D5C00824238BF101C802E80B2888005DA16F1800FB8BF6FF07F0600E07F26CE718D7116
:200D7C00194A12681F280A604FF0000208D340F2FF11814206D24008521C8142FBD301E0A8
:200D9C001F208880124F11490F38000942EAC00247EA0200C1F8FB0F0026C1F8FF6FBDE80F
:200DBC00F88F0D4F0B4E494608203760891D0870BDE8F88F881300506E62084024220840B2
:200DDC00BC2C00209C130050082009403500094000E7A48030100940FDFDA400AC3F005094
:200DFC002DE9F0411C4615468C4208BF854282BF00230022E5E0002C08BF002D0AD1002908
:200E1C000EBF00286FF000006FF0000100F0E1F8BDE8F0815FF000085FF0000E002C08BF7C
:200E3C008D429CBF2C1C0025070C47EA01470E0CB44208BFBD429EBF5FEA044444EA154428
:200E5C005FEA0545070A47EA01670E0AB44208BFBD429EBF5FEA042444EA15645FEA05257D
:200E7C00470847EAC1774E08B44208BFBD4200F29380870847EA81778E08B44208BFBD427D
:200E9C007CD8C70847EA4177CE08B44208BFBD4266D8070947EA01770E09B44208BFBD42CE
:200EBC0050D8470947EAC1674E09B44208BFBD423AD8870947EA81678E09B44208BFBD4224
:200EDC0024D8C70947EA4167CE09B44208BFBD420DD8E60146EA5566EF01B14208BFB84263
:200EFC0001D3C01BB14158EB08085EEB0E0EA60146EA95664FEA8517B14208BFB84201D34E
:200F1C00C01BB14158EB08084EEB0E0E660146EAD5666F01B14208BFB84201D3C01BB141A9
:200F3C0058EB08084EEB0E0E260146EA15762F01B14208BFB84201D3C01BB14158EB080833
:200F5C005EEB0E0EE60046EA5576EF00B14208BFB84201D3C01BB14158EB08084EEB0E0E43
:200F7C00A60046EA9576AF00B14208BFB84201D3C01BB14158EB08084EEB0E0E660046EA32
:200F9C00D5766F00B14208BFB84201D3C01BB14158EB08085EEB0E0EA14208BFA84201D306
:200FBC00401BA14158EB08085EEB0E0EA34208BFAA423EBF2D0A45EA0465240A89D3734679
:200FDC0042461E4617460B46024631463846BDE8F0817047024A08B51268904708BDC0462C
:040FFC00801400203D
:201000003C000000000000000000000034100000000000000000000001000000000000004F
:1C10200000000000000000000000000001000000000000000800000000000000AB
:20103C003400000000000000000000006810000000000000000000000100000000000000E7
:14105C00010000000000000000000000080000000000000077
:2010700030000000000000000000000098100000040000000000000001000000FFFFFFFF87
:10109000FF00000001000000080000000000000048
:2010A0002C0000000000000000000000C4100000040000000000000001000000FFFFFFFF2F
:0C10C000FFFFFFFF080000000000000020
:2010CC0038140000E410000095A1011091A70110A1C2011009B2011041B8011000000000EA
:0810EC00000000002F000000CD
:2010F400280000000000000000000000141100000000000000000000FFFFFFFF0000000093
:081114000800000000000000CB
:20111C00341400003011000065C2011069C101101BC2011091BA011000000000000000006D
:04113C002D00000082
:20114000341400005411000071C20110A5B6011099BF011045B601100000000000000000BD
:041160002E0000005D
:201164002400000000000000000000008011000000000000000000000000000008000000AE
:041184000000000067
:20118800240000000000000000000000A41100000000000000000000000000000800000066
:0411A8000000000043
:2011AC00240000000000000000000000C8110000000000000100000000000000080000001D
:0411CC00000000001F
:2011D000000000007C1D002004000000000000000000000020000000701000003000000072
:2011F0001C110000A81D00200400000000000000000000000C000000301300001800000062
:2012100040110000B41D0020040000000000000000000000240000004813000018000000E1
:2012300000000000BC1D002004000000000000000000000010000000A01000002C000000B5
:20125000CC100000C41D0020040000000000000000000000200000006411000024000000E4
:20127000FFFFFFFFE41D002004000000000000000000000028000000881100002400000058
:20129000FFFFFFFF141E0020040000000000000000000000580000003C1000003400000014
:2012B000FFFFFFFF1C1E002004000000000000000000000010000000601300001800000029
:2012D000FFFFFFFF241E00200400000000000000000000001C000000AC110000240000009F
:2012F000FFFFFFFF2C1E002004000000000000000000000038000000F41000002800000010
:20131000FFFFFFFF341E002004000000000000000000000054000000001000003C000000AB
:1813300018000000000000000000000040130000080000000000000032
:1813480018000000000000000000000058130000080000000000000002
:18136000180000000000000000000000701300000800000000000000D2
:0813780001000000C0A100000B
:0413800008F00DBBA9
:041384000100000064
:0413880000000E0053
:04138C0000000F004E
:041390003200000027
:041394000100000054
:04139800841D002090
:04139C00000200004B
:0413A0000000000049
:0413A400FDC901106E
:0413A8000000000041
:0413AC00000000003D
:0413B0000800000031
:0413B4000000230012
:0413B800301F0020C2
:0413BC00010000002C
:0413C000CC1D002020
:0413C400080000001D
:0413C8000000000021
:0413CC00000000001D
:0413D0000000000019
:0413D400080000000D
:0413D8000000000011
:0413DC00000000000D
:0413E0000100000008
:0413E400C81F0020FE
:0413E80006000000FB
:0413EC0001000000FC
:0413F000981E002023
:0413F40000000000F5
:0413F80000000000F1
:0413FC0000020000EB
:0414000000000000E8
:0214040070472F
:021406002900BB
:021408000100E1
:02140A002500BB
:02140C002D00B1
:02140E002E00AE
:021410002F00AB
:021412000100D7
:0114140001D6
:0814180003000000A0A1000088
:081420000000000000000000C4
:0414280000000100BF
:04142C0000000300B9
:0414300083C4011060
:041434003C14000064
:041438003C14000060
:04143C0000000000AC
:041440009000000018
:041444009000000014
:0414480000000000A0
:04144C00CC1D002093
:04145000A59500005E
:041454002000000074
:041458005CA1000093
:04145C008CA0000060
:0414600009C30110AB
:04146400336A0000E7
:041468005F6F0000B2
:04146C0095C801100E
:0414700097C8011008
:041474000000000074
:0414780067A0000069
:04147C00C09E00000E
:04148000D89E0000F2
:04148400A89E00001E
:0214880008005A
:02148A00090057
:02148C0001005D
:02148E0000005C
:01149000015A
:041494000000000054
:041498000000000050
:04149C00000000004C
:0414A0000000000048
:0414A400239A000087
:0414A800897800003F
:0414AC006188000053
:0414B000AD7F00000C
:0414B400997D00001E
:0414B800DD7F0000D4
:0414BC00FD600000CF
:0414C0009D970000F4
:0414C4002966000095
:0414C8000DC801103A
:0414CC001DC8011026
:0414D0000800000010
:0414D40024000000F0
:0414D80018000000F8
:0414DC0028000000E4
:0414E00020000000E8
:0414E4003C000000C8
:0414E8000C000000F4
:0414EC0034000000C8
:2014F0002DE9F04F0128ADF1140D40F0F280DFF81492D9F8DC00012840F0E9800220C9F82E
:20151000DC0008F071FB0290012005F0B1FD20B101210646C9F8DC10D5E008F061FB03909D
:201530006E484FF00008C0F80080012006F0E4FE012818BFCDF8008004D1404605F0A0F93F
:201550000120009066486E4CC0F800801934D4F8FF0F112008F076F900280CBF46460126C5
:20157000102008F06FF908B146F002060F2008F069F908B146F004060B2008F063F930B1F2
:20159000584800685849006B0246088890470A2008F058F90028404618BF01204FF0805B45
:2015B0000BF5DC7528B128685049006B0246088890474F480127076028688069014646F092
:2015D000200088474B48076008F036F900F001010191400815D2484808F0A7F88246BAF19E
:2015F000040FF8D0BAF1010F06D1DBF8D801406802464148032190474049086820F0030042
:2016100008604046FFF7DAFA2868D4F8FF1F806B8047019801280ED0BAF1010F06D1DBF8D1
:20163000D801406802463448394690473349086840F0030008602A4807602868406901461F
:20165000304688470B2008F0FDF828B128682649C06A0246088890470A2008F0F3F828B186
:2016700028682249C06A024608889047204807600322C9F8DC201F4BC3F800802868406BF5
:201690000146304688470128F8D1042005F0F0FC124807601A48D4F8FF1F01688909FCD3E0
:2016B0000098012802D1384605F0EAF808F0BEF8082005F0DDFC06460398C9F8DC7008F0A1
:2016D0008BFA04F0F1FE029808F082FA02E0042600E00126304605B0BDE8F08F0C4009408D
:2016F00000022243B80100103E9E00003A9E0000282008608001044300400340242208406D
:2017100014100940801800202DE9F043002B08BF002A10D10029BCBF00204FF0004106DB29
:2017300050EA01071CBF6FF000006FF0004102F000FBBDE8F0835FEA530898EA610803D511
:201750000026404266EB01015FF0000913F0004E03D00026524266EB03031C461546002C08
:2017700008BF8D429CBF2C1C0025070C47EA01470E0CB44208BFBD429EBF240444EA15448D
:201790002D04070A47EA01670E0AB44208BFBD429EBF240244EA15642D02470847EAC17779
:2017B0004E08B44208BFBD4200F29280870847EA81778E08B44208BFBD427BD8C70847EAA6
:2017D0004177CE08B44208BFBD4265D8070947EA01770E09B44208BFBD424FD8470947EA3E
:2017F000C1674E09B44208BFBD4239D8870947EA81678E09B44208BFBD4223D8C70947EA95
:201810004167CE09B44208BFBD420DD8E60146EA5566EF01B14208BFB84201D3C01BB14181
:2018300059EB09094EEB0E0EA60146EA9566AF01B14208BFB84201D3C01BB14159EB0909C0
:201850004EEB0E0E660146EAD5666F01B14208BFB84201D3C01BB14159EB09094EEB0E0EE1
:20187000260146EA15762F01B14208BFB84201D3C01BB14159EB09094EEB0E0EE60046EA30
:201890005576EF00B14208BFB84201D3C01BB14159EB09094EEB0E0EA60046EA9576AF00EE
:2018B000B14208BFB84201D3C01BB14159EB09094EEB0E0E660046EAD5766F00B14208BF0E
:2018D000B84201D3C01BB14159EB09094EEB0E0EA14208BFA84201D3401BA14159EB0909B7
:2018F0004EEB0E0EA34208BFAA423EBF2D0A45EA0465240A8AD373464A465FEA080803D51A
:201910000026404266EB01015FEA480803D50026524266EB03031E4617460B460246314669
:201930003846BDE8F083FEE72DE9F843814607F077FF002100B90121724E30680028FCD04F
:20195000734D01242D1DEF6A346009B107F06EFFDFF8B481C7F3072008F1BC01086007F03B
:201970005FFF002100B9214630680028FCD02F68346009B107F05AFFC7F38440C8F8C000F9
:2019900007F04EFF0146002001B92046014630680028FCD0ED69346009B107F047FFC5F300
:2019B0008120C8F8D000B9F5C061C8F8B81000F0A48098F8D80068B9C8F8D410D8F8C000BE
:2019D000C8F8C800D8F8BC70C8F8C470D8F8D060C8F8CC60D8F8D410D8F8BC60002954BFB7
:2019F00002206FF00100454605F1C8031A6801EB41014018411000EB917002EBA0021A60BB
:201A1000D5F8C810C5F8C46000291CDD1E293DDDD5F8CC0030B93429B4BF15391E21C5F811
:201A3000C81025E02A29BABFD5F8C8000B381E20C5F8C800D5F8C4003F28B4BF401C3F202C
:201A5000C5F8C4001FE0D5F8CC00032812D011F10B0FC6BFD5F8C8000B30201CC5F8C8001E
:201A7000D5F8C4000028CCBF401E0020C5F8C400032009E011F1150FC6BFD5F8C800153082
:201A9000201CC5F8C8000020C5F8CC004FF08058D8F8A401B5F8C4101C4E40684FF47F42A9
:201AB00008230746009130463021B847D8F8A401406804214FF40032112307460094304605
:201AD000B847D8F8A401B5F8C81040684FF4F80212230446009130460421A047D8F8A40111
:201AF000B5F8CC1040684FF440620A230446009120213046A047BDE8F883002088F8D80082
:201B1000BDE8F88300800C408018002000A00C4000A00C402DE9F0470446FF252570657014
:201B3000A570E57057A02571ADF1480D657107F0B9FA07F0A9FD07AE304607F045FD4FF0EB
:201B5000000801208DF8248003F01EFC4046314606F034F90690002808BF012000F08D8053
:201B70008DF80080CDF82CD053278DF83C7001260C9602A80D900E9606980BA907F0B4FE35
:201B90000028F9D09DF8081041A007F08BFA07F07BFD8DF83C70CDF82CD00E964FF00209EB
:201BB000CDF830902C208DF800000A238DF8013002AA0D9206980BA907F096FE0028F9D0C3
:201BD0009DF8081035A007F06DFA07F05DFD8DF83C70CDF82CD0CDF830904FF0060ACDF839
:201BF00038A031208DF800008B238DF8013002AA0D9206980BA907F077FE0028F9D09DF834
:201C100008102AA007F04EFA07F03EFD8DF83C70CDF82CD0CDF830900E962D208DF8000074
:201C300008238DF8013002AA0D9206980BA907F05BFE0028F9D09DF8081021A007F032FA44
:201C500007F022FD32208DF800008DF83C70CDF82CD00C960D940698CDF838A00BA907F06C
:201C700043FE30B925706570A570E570257184F80580069807F033FE304607F007FE12B0C5
:201C9000BDE8F0874144584C2052656164200A00494420307825782E0A00C04642572052EE
:201CB00041544520307825782E0A00C04461746120666F726D617420307825782E0A00C05D
:201CD000506F7765725F636F6E74726F6C20307825782E0A000070472DE9F04FADF1840DAF
:201CF00000F09EFE05F058F90026012804D107F09BFA022808BF012658490868C0F38150A5
:201D1000012806D151F80C0C0127010E07FA01F006435348007806F041FE524D2C462860FF
:201D300038B1FF2204F1400107467F1E01F8012BFBD14D4909684FF0000901F0FF02FE2A0F
:201D50001BD0DFF824C101F0FF074A460123FF2F0CD0B8427FD903FA07F73E427BD101F00D
:201D7000FF0147EA0909611881F840205CF8041F521C01F0FF07FE2FE9D1092001F01EFDC6
:201D90003948002124220823606001A807F01CFF4FF0010804F1240001AA8DF81C804146F1
:201DB00007F00EFF236843B3002794354FF0040BBA4608FA07F0064219D119EA000F04BF50
:201DD00007F0FF0141F4C04105D0E019264990F8400051F82010254802F0C6F8F8B24FF042
:201DF000FF3107F093F82368C5F800A001E0C5F800B07F1C2D1D9F42DBD30AA80021302252
:201E1000082307F0D9FE0025FF2010210AAB1290174A009504F1080007F0CAFE16A8282233
:201E30000823294607F0C0FE04F1600016AA1C9510491D952B4607F0B3FE0F4951F80D0C9F
:201E500020F4F85040F4005041F80D0C4746C1F8FF7F0A4E376021B0BDE8F08FB43F005055
:201E7000D52C0020D02A0020ACA10000007FC767398F0000997100000D3009400800094074
:201E90002DE9F843674C04F1240007F0B8FD15460E460090FEF7EEFB05F001078146B6F1E1
:201EB000FF3F0CD1A06A20B9B4F93600401C06B202E0A06AB0F91C60002084F8A300304657
:201ED00006F09EFA0326002800F09B80A16ADFF84081814269D0009FB8422ED03FB1009949
:201EF0000A68904209D0096800290091F7D1832E41D04846FEF7C2FB3DE004F1A40006F014
:201F100045FF00980168AA0802D20A6802600846002202600091009818B94846FEF7AEFB1A
:201F300028E0C17F41F00401C177684607F0F4F90146404605F0F6FDEDE704F1A40006F031
:201F500025FFA8083ABF606A0068002060624846FEF794FB0099C87F40F00400C87768467D
:201F700007F0DAF90146404605F0DCFD009808B1A808EFD28326E07988B9207A012843D011
:201F9000244807F00BFC022104F1C80007F03CFA6078012838D0204807F000FC34E004F14D
:201FB000C800022107F030FA2EE0A90803D3616A009100266662C27F0121B9401143C1773E
:201FD00007F00EFE0446002F14BF1448144806F06DFE4846FEF752FBA80801D3009820B9C4
:201FF000204607F0F9FD83260EE0C17F41F00401C177684607F090F90146404605F092FDBA
:20201000ECE74846FEF73AFB3046BDE8F883C046A014002075030000693900000100020494
:2020300001000104701400202DE9FC41654C5E4D5E4EDFF88081624F94F8E410481E0B28E9
:2020500066D8DFE800F0802C43062343062343067B69042907D001220A2945F8212C14BF13
:202070000220032004E02021012045F8211C024684F8E200002045F8390C0827C5F8FF7F99
:20209000C5F8F37F45F8392CBDE8FC81052914BF09200620002584F8E40035607DE094F8EA
:2020B000E1700120383D002FC5F81B0004BF0620002102D00021F160032084F8E40003202E
:2020D00045F8010C31603068800866D294F8E4103748012503290FD00068406800216022DA
:2020F0000523074600914046B84794F8E400062814BF0A200720CEE7006840680221602219
:2021100005230746009140460021B8470420C2E707F042FDBDE8FC812749002627480E606B
:20213000012505600E2001F0DFFA022005F0BEFE84F8E45084F8E360BDE8FC8100203860F0
:202150000C25786027E04FF08056D6F8A00100680146202088472C3D0F2045F8010C41F604
:202170001D53C5F80330D6F8A401406800214FF4C07202250723844640460095E047D6F813
:20219000A401C06800214FF4C072072306464046B0470120386084F8E45004F17800FEF70E
:2021B00075FABDE8FC81C04639400C4038600C40A401001000A00C402C500C4004800C4096
:2021D00034600C40801800202DE9F041ADF1180D05F0C6FA06F074FA5C4D05F1200007F07E
:2021F000ABFA4FF47A7204235949A86005F1580004F0F6FE1F20012105F0AAFB01240427A9
:202210000020ADF802004FF44871ADF8081008268DF8004080468DF804706A46ADF80660C1
:202230006420ADF80A802146ADF80C0040F20530FEF7A6FB40F2063002210DF10202FEF744
:202250009FFB4FF442701B2105F13A02FEF798FB40F207300E2105F12C02FEF791FB4FF469
:202270004470214601AAFEF78BFB40F2113002210DF10602FEF784FB40F21230022102AABA
:20229000FEF77EFB40F2133002210DF10A02FEF777FB4FF44570022103AAFEF771FB2D4819
:2022B00007F09AFA0620A02105F052FB0720A02105F04EFB3046A02105F04AFB0920A021D9
:2022D00005F046FB8DF8144003268DF817404046049039468DF8150004AA8DF816604FF4BB
:2022F000816005F01BFB4FF48060214605AA05F015FB40F2024021460DF1150205F00EFBB6
:2023100040F2034021460DF1160205F007FB40F2064021460DF1170205F000FB07F022FBCA
:20233000FFF726F807F0CAF804F054FD05F008FF05F01CFF05F1140007F0CAF805F118009E
:2023500006F0F6FA06B0BDE8F081C046080200201D950000B99F00002DE9F04F0E4605468D
:202370001122ADF1240D0021684603F0CFF800240527A6E09DF800109DF802309DF80300E8
:202390009DF8012001F00F01697040EA03219DF80430AA70090141EA23119DF80EB0069119
:2023B0009DF810A09DF805309DF806109DF800209DF8000041EA03219DF80730090141EAB9
:2023D000231105919DF808309DF8091041EA032189B207919DF80E309DF80D1020F07F0072
:2023F000890041EAA3111FFA81F99DF810309DF80F102870890041EAA311B3680BF00F0B19
:202410000AF00F0A02F00F021FFA81F8012B19BF9DF80E109DF80E309DF810109DF81030F0
:2024300001F02001014303F01000014331F07F03297007D1002C42D1B26C716842F21070F1
:2024500090473CE0002C3AD15A32D0B2E91C3346012204F0FFFB041C31D16878291D01223A
:2024700033465030C0B204F0F5FB041C27D16878691D012233466430C0B204F0EBFB041CE3
:202490001DD10598314604F06BF8E8800698314601F0C4FDA8600798314602F019FDE86036
:2024B000B068012806D048465946324601F066FE286114E04046514606F038FCF8E77F1EBB
:2024D000FFB267B15CB91D2069461122334604F0C1FB002D04467FF44DAF4FF0FF34204608
:2024F00009B0BDE8F08F70472DE9F84F9A4693460E468146FEF7BEF8514C0090B4F936103C
:20251000B4F934000AAF401A40F6F8710140082980F28780B4F93400401C6FF31F30A08619
:20253000B4F9348006F0F2FB054609F1700006F02DFCAE6085F81EB0C5F804A0A5F81C8080
:20255000C5F80C9097E80C0041A003C8002605F110071040194087E8030004F12400EE770F
:202570000768002F50D1294605F0DCFA002851D0A9F89480E87F40F08000E87789F8966067
:20259000607A40B1607830B10120A07266722779A671781C20710098FEF770F8A06A002899
:2025B0004BD1607860BBE079012846D0FEF762F80646207A00BBA86804F032FC224B21496B
:2025D000E2681B68086040B93046FEF757F804F1C800042106F018FF2FE00968D26804F165
:2025F000A400891AB1FBF3F1FEF74CF804F1A400FEF74CF830461EE0144901200870F9E79F
:20261000192007F039F818E004F12400294605F089FA48B9B4F9340000F6FF706FF31F3059
:20263000A0866FF0010805E0A9F89480E87F40F08000E8770098FEF721F84046BDE8F88F94
:2026500070140020C42C0020B8A10000D42C0020F1EFFF9F2000000010B504461722ADF1B9
:20267000300D8A202346694604F0F4FA011C40F09A800DF11701E1200E22234604F0EAFA7A
:20269000011C40F090800DF1250100200522234604F0E0FA011C40F086809DF820209DF86E
:2026B0001F009DF8013040EA02209DF80020E08342EA03209DF902309DF8052084F8223022
:2026D0009DF80430208443EA02209DF807309DF80620A08442EA03209DF908309DF80B20A6
:2026F00084F828309DF80A30E08443EA02209DF80D309DF80C20608542EA03209DF90F30D8
:2027100084F82E309DF90E309DF8132084F82F309DF81230A08543EA02209DF815309DF89E
:202730001420208642EA03209DF816309DF8192084F834309DF8183062F31F1323829DF839
:2027500017209DF81830608610019DF91A2040EA231022759DF91B3063759DF91C20A275F8
:202770009DF81D30E3759DF91E2022769DF923309DF8222063769DF82130608243EA0220F3
:2027900060839DF924309DF827202377C2F301109DF9253084F83C009DF9292084F83D30B5
:2027B000101184F83E000CB0084610BDB0B50D464E490746ADF1180D0DF101000A68097905
:2027D00002600522017100210DF1090002F09EFE6846294606F006F918B90020294602F0D4
:2027F0005BFA002F75D0002875D19DF801000DF1090105222B4604F02DFA0024002885F878
:202810004D4068D1F81C07212A4605F0CDFD002861D1781C052105F0C7FD00285BD1B81C82
:20283000052105F0C1FD002855D13846052105F0BBFD00284FD1381D082105F0B5FD00287B
:2028500049D1F8789DF80D107B789DF80C2000F0070001F0E30141EA80018DF80D1003F06B
:20287000070002F00301BB789DF80A2041EA401103F007003B7841EA80018DF80C1002F0F1
:20289000F80003F00701014338798DF80A10082806BF0121201C211C9DF80D209DF8097041
:2028B00000F0070002F01F022B4601F0010142EA401207F07F008DF80D2040EAC1100522D2
:2028D0008DF809000DF109010DF1010001F096FE01E04FF0FF309DF8001029B120B99DF892
:2028F0000000294602F0D8F906B0B0BD029C00002DE9F041424C474D8046C8F38140401ECC
:2029100002D0401E2AD025E0284620300168880C20D24FF4804020603A48D0F802204B0A87
:20293000C1F3033703F0800322F08F02134347EA0302C0F80220D0F801300E1266F30303A2
:20295000C0F80130026801F0E70722F0E70247EA020102E04FF00041204601602A4E06F16E
:2029700008000068C0F3C0070FB94020A0624FF40070206406F050FE40F0300084F8C80014
:20299000C8F3815038B3401E03D0401E1ED002211DE0012005F0B0FC07460420394603F06E
:2029B00007FC042005F0A8FC8742FAD1366826F07F4005F063FA15480068036807214FF057
:2029D0006022300E98474FF4806020600321042003F0EEFB06E00420012103F0E9FB0C482A
:2029F00005F04CFA284600680B4947F6180700F03F0084F8CB0F094E0F803068BDE8F081ED
:202A100040A00C400A600840A83F0050B4010010BD3786006C13005070B00C402C20094082
:202A30002DE9F043484C94F8E700ADF12C0D002877D13D4F387B01250021242284F8E75070
:202A50007E6884F8E6000823C4F80C6101A807F09FF8002604F10C00069601ABADF814600B
:202A700032490796324607F08FF8314904F1300001AB324607F088F82E4904F1540001AB92
:202A9000324607F081F8B868014628468847DFF8AC8029487B7B0078D8F80410C1F3815748
:202AB0001BB1032F03D184F8E150032F1ED0022F1CD0012F2ED14FF08059D9F8A401204C21
:202AD000406803214FF040521C230746009131462046B847D9F8A401406831464FF4007206
:202AF0000923074600952046B84713E0022005F0F5F9032F0CBF4FF47A7142F21071114822
:202B100000685434B1FBF0F12046FDF7BBFD2046FDF7BCFDD8F80000C00802D2304605F02C
:202B3000DDF90BB0BDE8F08370A10000E71C0000394D00006D4F0000D52C0020B03F005026
:202B500000A00C40B8A10000801800202DE9F0430646880FADF1140D7FD303F0D3FC434DD9
:202B70004FF000081C35C5F800803D4845F81C0C012006F08BF83B4806F010FE3C48434658
:202B900040F60A0200F13801438790F84440C0F83C8090F845700A8004F0F00480F84440C4
:202BB00007F0F00444F00104B76880F8454081467B803C1D00E03C1D276817B13888824296
:202BD000F9D12160607A00F0F000607209F1240006F015FF80680088D21F82421DD0521C66
:202BF00082421AD006F120000788B7B196F82C2096F82D70C6F8248002F0F00286F82C20F4
:202C100007F0F00242F0010286F82D20C9F83C00487B738400F0F0004873B068694600F0B2
:202C3000F9FC684606F0F0FCB06800F087FC28680028FCD0C5F80080012005F05DFB01281C
:202C500008D0607A00F0F00040F001006072064806F0A4FDB06845F81C0C05B0BDE8F083A0
:202C700001010E0475030000E568000000100440701400202DE9F04F0C464549CA7AADF15C
:202C90002C0D84460592487B09900D7900958A7A488B4B8A0E7B91F805A091F8028004920F
:202CB000B1F846E008904A7A088B0392CD7807900A7AC88A02920F6A0690CA79888A019274
:202CD0008A79E146A9F54079B9F11D0F10D8DFE809F05B5553514F4D4B494643413F3C3AE2
:202CF000380F34312E2B2923201E1C0F19181716BCF1280F49DA604604F0CEFB21E0099E9A
:202D1000B246D046CDF814801DE00898079007980690DDF818E005E03831086820608888B8
:202D3000A08032E070460AE0B1F8440009E0B1F8420004E0B1F8400001E091F83E00034632
:202D500012E0208021E0059804900498039001E03231E2E7039802900298009006E0019A8B
:202D700087310DE068310BE01846EAE7009D0BE02C31D2E7276008E0583100E048311022CA
:202D9000204601F079FD00E025700BB0BDE8F08F980E0020F8B506F05FFA404E3E4F0446DB
:202DB000A00823D3B96A09B33D4600200B698A69A86204EA0300104340F0020006F10802FB
:202DD00088610B6910689843106001F1100090E80C0030681A1C9043306005F1300004F0F2
:202DF000A1FE022105F1C80006F00EFBB86AA10815D200F110020CCA002122400B40002BC0
:202E100008BF002A0BD0016985690C40F8622C434FF48041846107F1C80006F0F5FAB86AB9
:202E3000002837D107F12404204606F0E8FD051C30D0F868E968884226D1A86803F0F0FF6C
:202E500017490860E0B906F1080128690A6810430860326805F1100393E80300081C1043AB
:202E7000306000233361A86846F80C0C06F1100000680028FAD0204606F04EFABD62F8BDBC
:202E9000086803F09BFBF8BD07F1C8004FF4805106F0BAFAF8BDC046701400200C10044037
:202EB000C42C00202DE9F047ADF1180D01F0F6FB3A4D4FF0030908274FF6FF78002605F127
:202ED0003E0A2C4605F0EAFF20BB009601A80DF106016A4605F0D8F8E0B9BDF8040010282C
:202EF00014D160789DF8061088420FD100980188884509D14088C00B08D3042005F120023E
:202F1000014604F077FE01E003F0B0FF009808B106F05AF9208A41082DD320F001006379F4
:202F30002179208253EA010225D073B9207A637A8DF8070005F132018DF808300A680DF18B
:202F500009031A608988998001E08DF80790A07A8DF80F00E37A8DF810300DF1070006F0E9
:202F700023FC38B1636AA77023B11A6812B1196838468847208A810807D320F002002082AD
:202F90005146304602F0E6FB208AC1089AD320F00400208204F038FC94E7C046980E00203C
:202FB0002DE9F04104466668A7680D46ADF1380DFDF760FB96F8DC10012903D1FDF75EFB49
:202FD00000205EE04FF0010886F8DC80FDF756FBE968204602F090FF0028F1D128783070BA
:202FF00068687060287A002130220823F06001A806F0E2FD06943A7B099200250095224A03
:20301000B96806F1100001AB06F0D2FD01A828220823294606F0C8FD396907911B49059488
:2030300006F12C0001AA2B4606F0BAFD01A824220823294606F0C8FD06F160008DF81C80D8
:20305000414601AA06F0BCFD307838B906F17C00294601AA06F0B4FD0D4870603572C6F828
:20307000BC50C6F8C050786800F0A8FB204603F06FFF084A06F1C8000421234605F070FB2D
:2030900020460EB0BDE8F08165340000E16600003D990000799600002DE9F04390460A6890
:2030B000D8F800401678814600271D46ADF1140D3846531C242E0B6053D112F8016F5B1C93
:2030D0004C2E0B600ED1AA68E41C24F00304241D54F8040C494603F0CDFA2968EF60012701
:2030F000091A2960462E1AD1E41C24F00304241D54F8040CE41C029024F00304241D54F8C3
:20311000040C002749460390AA68ADF8047001A801F000FC2968EF600127091A2960532E50
:203130001FD1E41C24F00304241D54F8040CE861C8F80040288B0090A968EA69D9F8000016
:203150004346FCF773FFD9F80040002714B10119C9F80010D8F800402968EF60091A01274E
:203170002960662E0AD12B8B23B9E41D24F00704083403E0E41C24F00304241D1FB9E969F0
:203190000E700127EF60C8F8004005B0BDE8F0832DE9F0430646ADF11C0D06F0F1FC04F02A
:2031B00055FE4FF000090546CDF8009006F074FB30F0010002D00098A84202D16FF00400B4
:2031D00059E070684C4658B1B0F1FF3F05D001A904F024FE30B107464CE04FF0FF3000E017
:2031F0002046019006F0C8FC0199012701EB000800E001936868019906F0BAFC00282ED0A8
:2032100003A804F0D9FBD8B99DF8100002A904F0B9FB88B9B368BDF808009DF81210059A33
:20323000984748B19DF81270B773BDF80800B081059B33614F4612E00599684604F0EEFF8F
:203250000198641CB0F1FF3FD4D00028D2D006F093FCB8EB000302D001989842C9D2009954
:2032700005F1080005F0F0F924B1686806F07CFC641EFAD1384607B0BDE8F0837CB5054639
:20329000084602F037FD354E02461821304605F01DF805F02DFE324909684C6840F2FF3203
:2032B000002380B22C2100903046A04706F0BCF91C210246304605F009F805F00BFE02468D
:2032D0001421304605F002F805F0EAFF02461021304604F0FBFF284602F034FC02460C2184
:2032F000304604F0F3FF284605F0C2FF1D4C400040F020002070284605F0C6FF40F010004D
:203310002070284605F0E2FC02462821304604F0DDFF284605F0D0FF400040F06000E070A3
:20333000284605F0D5FFC00040F0800004F8080C284605F0D9FF800040F47C40A4F89300EC
:20335000284604F0EFFF02460821304604F0BEFF4FF48000A4F2091108607CBD00A00C4075
:20337000A401001049A10C40F0B5ADF1340DFFF757FB304908682822082340F0020008608E
:2033900001A8002106F010FC2B4E2C490524002301AA079406F1C80006F002FC00213022AB
:2033B000082301A806F008FC0025FF271921244AADF81C5001AB099706F14C00009506F011
:2033D000F7FB2822082301A8294606F0EDFB1D4901AA2B4606F1FC00079406F0E1FB30224C
:2033F000082301A8294606F0E7FB01241A21164AADF81C4001AB099706F16800009506F0AB
:20341000D7FB12492A4606F1A400134606F0BCFB0F4806F0C3F9B47186F8A3507571F57173
:2034300035727572B5724FF6FF7075610DB0A6F8A000F0BD0020094070140020E99300000C
:20345000618A0000BD3B000039690000118800006939000098B53749826844680968106850
:2034700049688847344B01229A6140B1217AFF2905D0FF214009217257D204224DE0207A84
:20349000002852D0401E19D0401E02D0FD384CD048E05968D4F8B4000170D4F8B800D4F8E0
:2034B000B410401E491CC4F8B800D4F8B870C4F8B410F7B1012F88BF09222EE0D4F8B000B9
:2034D000401EC4F8B000D4F8B070A7B9D4F8B8707FB10220D4F8A8102072097C012F4FEA7C
:2034F000410141F0010143F8041C94BF03220B2214E004220FE0D4F8AC0000785860D4F8CA
:20351000AC00022F00F10100C4F8AC0005D2D4F8B87017B905220020207202201A6006F05E
:203530002AFA98BDFF20207298BD04F12C0006F017FB98BDAC01001004280040E0B5018837
:203550000025A1F6020159B143F20402891A04D0491E57D190F8246000E00226C76901E02C
:20357000C67B4769002F4DD03F1F052044F2380357F8041F0A04120C934203D0401EF7D19E
:203590003F1D01E0C1F30345002D3BD01F4B3046401F18D01C4A401E10D0001F0CD0801E46
:2035B0000DD0C01E06D00F3819BF1A1C6032184A443204E0121D02E0121F00E0083A1068EB
:2035D000C0F3834003E01A461068C0F303200F2806D0A84216D921F4702141EA004110E0EC
:2035F000761F0AD0761F08D0761F06D00F3E1CBF21F4702141F4802103D121F4002141F491
:20361000E0213960E0BDC0460011005020130050C410005080B50288A2F602073FB143F2D0
:203630000502BF1A14BF002090F8240000E0C07B2C4AD2F88832401F0B6048D0401E3CD09A
:20365000001F30D0801E24D0C01E18D00F380CD0D2F890024860D2F894028860D2F8BC02EC
:2036700020F0784040F080503AE050694860D06A8860506C20F0784040F0704030E01069E8
:203690004860906A8860106C20F0784040F0F04026E0D0684860506A8860D06B20F0784061
:2036B00040F0C0401CE090684860106A8860906B20F0784040F0A04012E050684860D0696E
:2036D0008860506B20F0784040F0405008E01068486090698860106B20F0784040F02050E3
:2036F000C86080BDC41000502DE9F8430446FCF7C1FF81462D48021992F8ED10491ECFB21D
:20371000002F82F8ED704BD12B4D05EB84052E78698836F07F0788461AD1F10911D24FF06E
:203730008054D4F8B801806901464046884704F5DC742068406B0146404688470228F8D190
:2037500021E000EB8800D0F80011002088471AE04FF08054D4F8B801006A01464046884785
:20377000D4F8B801806A014640468847D4F8B801006B01464046884701210D4A0D48116063
:2037900001688908FCD306F03F003F2801D0FFF7ABFF687800F03F003F2801D0FFF7A4FF63
:2037B0004846FCF76BFFBDE8F883C046801800202820086028200840109E00002DE9F041FB
:2037D0000646FCF757FF2D4D8046A91991F8ED00421C002881F8ED204AD1294C04EB8604B7
:2037F000277807F03F003F2801D0FFF7E7FF607800F03F003F2801D0FFF7E0FF668837F0A7
:203810007F001AD1F80911D24FF08054D4F8B801406901463046884704F5DC742068406B01
:203830000146304688470128F8D121E005EB8605D5F80011012088471AE04FF08054D4F8D7
:20385000B801C069014630468847D4F8B801406A014630468847D4F8B801C06A01463046C3
:2038700088470121074A0848116001688908FCD34046FCF703FFBDE8F081C046801800201D
:20389000109E00002820086028200840294A2DE9F04180460125284815600768002FFCD035
:2038B000284C2949C020443C206001F1080003689B0806D250F8040C204B000C40F0F00063
:2038D000187000200C3110630E68304600F0F6FD40463146FFF7D2FC1C48B038816D40F284
:2038F0001E226FF31F418A4214D901680068C1F30367C0F3034007B17F1E072805D0062891
:203910000EBF0720801C00F00F00114947EA0010083908703046FEF7EBFF0E481438006855
:20393000C1680220884740202060054F3D60BDE8F081C0461010094094022243566208400C
:203950009404604244600C40A83F00506C1300500A600840B4010010042998B54DD1274CA5
:2039700004F1240006F04BF840B994F8A300400838BFE06804D3D4F8880000E0C068E060C3
:2039900041681F4A09781160416812680978914206D0876927B120A20CCA6FF0FF01B84708
:2039B000022004F09BFA1120FFF708FF0120E071E068011D007C10B16079012804D00E2005
:2039D000FFF7FCFEE168091D08680E49083007680FB947681FB10020C8610B4F0F600B4A5C
:2039F00040F2FF7000271060094C8F6109484C6105F0D4FE192006F0AFF898BD70140020A6
:203A1000D0210840001004405100070600000460020000405D2B000000000000000000027B
:203A3000F0B5304CA01C2E4D0078ADF1C40D28B928686421B1FBF0F006F08AF804F054FEF7
:203A500004F110004FF0FF3100F078FE2D6804A804F09CF80028FAD140F213104FF47A7737
:203A7000B0FBF5F636E004A803F026FBBDF98200219B8DF80000190A8DF803108DF80230DF
:203A90001A0C8DF80420190E8DF8051000128DF80100229A8DF80620110A8DF80710130CB1
:203AB0008DF8083023988DF80A00110E8DF80910030C8DF80C30010A030E8DF80B106A46F6
:203AD0008DF80D300E21002002F0ACFFA088801B06F03EF860780128C5D0B7FBF5F0F7E72E
:203AF000B8A10000D40600202DE9FE4F0CAF3C8881460D4608469846164601A904F0ACFC99
:203B1000012808BF01204DD0BDF80400DFF898A042F6021100274FF0FF0B401A2ED049F251
:203B3000FF51401A32D0401E14D0401E24D10CBBB8F1010F1CD13078032809DBE968087047
:203B5000E9685646701C884220D14FF0020B20E080271BE074B9B8F1010F09D13078E9687A
:203B70000870E96856468E4210D14FF0010B10E00D270BE00B2709E00A2707E00094484670
:203B900043462946324603F0BDF90746BBF1FF0F07D05046001D006818B1016809B1584679
:203BB00088473846BDE8FE8FBC1B0020F8B5FCF761FD2A4C0746103CD4F89C0010F4602F77
:203BD0002BD0D4F89C00400CC5B2680807D2A80803D2E80828BF022502E0012500E00025D6
:203BF0006E1D70B202F0CAFED4F89C3005F111010120884023EA00013846C4F89C10FCF7DE
:203C10003DFD04EB8500D0F88C704FB1D4F8880013A20CCA3146B84702E03846FCF72EFD4F
:203C3000D4F89C0020B104F1FC00002105F0ECFB94F8A30080080FD3D4F8987037B1D4F82C
:203C5000880009A20CCA6FF00101B84794F8A30000F0FD0084F8A300F8BDC0468014002041
:203C7000000000000000000800000000000000802DE9F8430D46064668687468D6F80890AA
:203C9000002710B9E868002850D02078012814D1FCF7F0FCD4F8BC1049B1D4F8C0108D61EB
:203CB000C4F8C050FCF7EAFC0120BDE8F883C4F8BC50C4F8C050FCF7E1FC022004F00EF98D
:203CD00004F160084FF0FF31404605F051FFD9F8080005F039FF3046294601F06DF80546B1
:203CF000D9F8080005F038FF207888B9B5F1FF3F08D004F17C004FF0FF3105F039FF207A73
:203D100048B110E003202072022004F0CFF80AE0B5F1FF3F01D0012705E00320207204F1C2
:203D30002C0005F01DFF404605F01EFF3846BDE8F88370472DE9F0412D4C0546A41C2078E6
:203D50001F4690460E46ADF1380D012803D0FFF70BFB012020705EB1B8F1000F6E6007D0CC
:203D7000C5F80880FCF786FC617819B1FCF786FC002038E0491CC9B26170FCF77FFC0124E5
:203D90001FB9684605F0B8FB6F46386828607868E860387A2874F8686861386900B1A8610E
:203DB0000021782205F1200001F0B0FB05A800212422082305F008FF8DF82C4005F138002C
:203DD000002105AA05F0FCFE05A800212422082305F0DEFE05490B9505F17000002205ABDE
:203DF00005F0D2FE28460EB0BDE8F0819399000070140020F8B505F013FD05F01DFD0446D1
:203E100004F00C000C2845D0E0081ED204F00EFB234E376805460120014604F0F5FF316830
:203E30006943884211D21F4C8220B0FBF7F0291A2046FCF727FC2046FCF728FC0120FDF729
:203E50004FFB204604F0A2FF25E0200922D21648610939BF016821F00101016841F0010113
:203E700002460160D2F898004FF0805440F00300C2F89800D4F8B8018069014620208847CB
:203E9000D4F8B801094C806B2168804701202060206800E030BF05F0C9FC01F05FFFF8BD47
:203EB000B8A100008C1800208C2108402C2009402DE9FE4F0CAF3C8881460D460846984623
:203ED000934601A904F0C8FA012808BF012047D0BDF80400DFF88CA042F602110026FF271E
:203EF000401A2AD048F2FF31401A2ED0401E10D0401E20D1ECB9B8F1010F18D19BF8000035
:203F1000E9680870E9685446601C88421DD102271DE074B9B8F1010F09D19BF80000E968DF
:203F30000870E96854468C420FD101270FE00D260BE00B2609E00A2607E00094484643464F
:203F500029465A4602F0DEFF0646FF2F07D05046001D006818B1016809B138468847304658
:203F7000BDE8FE8FB01C0020F8B50D46EEB2290824BF26494D40264BB400195985EA01025A
:203F90000240C2F3006C234A00EA05078143FF323A4000F4E0270A43B7F5E02F01D1510EA8
:203FB00015D300F4E0215CEA010710D002F4E027B7F5A02707D0B7F5803704BF22F4003231
:203FD00042F4A02203E022F4803242F4C0221A51114CC10D04D3A4F18001C5F380528A552A
:203FF000000E11D3FCF746FB290E03D201210022B14002E00121B1400A46503423688B4328
:204010001A432260FCF73AFBF8BDC046006000A000100840007F077F8020024038B58A6BAD
:2040300091F928405210A2F57A4293105B435D136C436501B1F926405443641004EBE50410
:204050004FF4004505EBA4448D8C6543EC13B1F92C506A43DD1291F92E306B431A4D9B10C6
:2040700003EB4203B1F92A20120402EBA302131340F6354202FB105002FB1300B0F1804FB1
:20409000B9BF400090FBF4F090FBF4F04000B1F93040B1F9322085106C4391F92F5091F84E
:2040B0003410C3105B435B1353431B1303EBC513021202FB02F503EB64336A43514303EB87
:2040D000614300EB231038BD000050C32DE9F0410E46294990461C4606AF8C4672680878E0
:2040F000BB8851783F881278002502EB012242F62321521A29D0521E052A18D9921F0CD020
:20411000263A34D1072F30D8C7F10700984298BF83B2674407F1080121E0B84225DBC01B45
:204130009842D8BF83B22380DCF804000BE0F06805F000FA80B2B84217DBC01B9842D8BFB2
:2041500083B22380F06839180AE0082F0DD8C7F10800984298BF83B207EB0C010F312380C0
:2041700040461A4600F088FB03E0072501E025800A252846BDE8F081AC1600202DE9F04165
:20419000284E90460C460546ADF1800D402206F14C01684600F070FB402210A806F18C01AE
:2041B00000F06AFB98F93E10A700CA178B0F900040EA03048B005B1844EB020457F80D2029
:2041D00040F23C50C117C01841EB04010024234605F0F6F86F44020C0B1408040243214628
:2041F000680CCE03ED0306434FF08070AD1846EB03062D1A386C8E4105F0E2F83446400AB6
:20421000CA05E307104349126A081A43631080182A4641EB03013346FDF776FA20B0BDE85B
:20423000F081C046009C0000BFB5074627480024002F00888DF800400D46ADF8050040D07E
:20425000204600F029FD00283DD1384669462A4601F095F9002836D170200DF1010102229D
:204270002B4602F0F7FC70BB3878012806D1A9682046012914BF0124022400E001209DF8A8
:2042900001109DF8027000F0010001F0F70141EAC0018DF801109DF8001004F003040222D6
:2042B0002B4607F0C00001F00F01014341EA04110DF105008DF802100DF1010100F09EF920
:2042D00001E04FF0FF300090BFBDC046009C0000F8B50D46254C26490728164644D8DFE883
:2042F00000F03C2E2A26221E1904284604F08EFC071C39D0616804F11700884202D0606856
:2043100004F026FF384631462A4600F0B5FA67602570F8BD142D27DC0C46153412E0142D4D
:2043300022DC0C460EE0142D1EDC64340AE0142D1ADC4F3406E0142D16DC3A3402E0142D0E
:2043500012DC253420460021152201F0DFF8204631462A4600F090FAF8BD082D04D1306862
:204370000F34206077686760F8BDC046AC16002025170020264838B550380468B4F1FF3F99
:2043900008BF002405F079F822481749002510380560012008601549086002F0E3FB1448A5
:2043B000006820B1134800682046FFF76FFA124812490560124C0A686FF35B4244EA020013
:2043D000086010490868C0F30130012806D10A680D48104040F400320A6008600B490868A5
:2043F0000028FCD138BDC0465C600C400822044380012843000120438C2108404820034054
:204410000000390104000940FFFFFCFC0C0068426C130050940460422DE9FE4F0CAF3D886D
:2044300081468B4608469846144601A904F014F8012808BF01203DD0BDF80400DFF878A0DE
:2044500042F602110026FF27401A21D04AF2C031401A0BD0401E19D1B5B9B8F1010F11D1B7
:204470002078DBF80C10022708701BE065B9B8F1080F07D12168656850460E3001600127A0
:2044900045600FE00D260BE00B2609E00A2607E00095484643465946224602F033FD064608
:2044B000FF2F06D05046006818B1016809B1384688473046BDE8FE8FD01A002070B5224C6C
:2044D000224D0646B00E0FD2700E0DD3802020744FF6D801A4F85110207001F021FAD03524
:2044F0002868C0F3042002E02868C0F3046005F015F900EB2670401C162805DA10F10A0FA5
:20451000B8BF6FF0090000E01520114D00F01F0040F4F850A4F859002868800803D20D4976
:204530000020086001E046F040660B48F10EB50E81F00101983801F00101016085F0010103
:2045500001F00101816070BD15620840B81200500000094094042A4398002043F0B520481B
:204570000127F84201D002F0A7FC204D204F214EBD4206D203CD0478A4003459401CA04781
:20459000F6E71D48002800D08047164D164FBD4202D210CDA047FAE7F0BD03251BE0416851
:2045B00008300A1C2A400BD11A1C2A40AB4305D0046804300C600431043BF9D1131C05D096
:2045D000047801300C700131013BF9D1021C2A4001D0A84304300368002BE0D17047C046EE
:2045F000FFFFFFFF000000000000000098AA0000F8AA000040AA000055C501102DE9F04769
:204610008946924607461E46ADF1180D00211422684600F07BFF304604F037FD5FEA000811
:2046300036D1002F34D0B9F1000F31D0AAF101000A282AD26D460024307B40B9385D314625
:2046500001F046FE8046385D00F07F0000E0385D287019F80400631C9CB26870A24505F1A7
:204670000205E9D8B8F1000F14D1746C9DF8000073684FEA4A020DF10101521EA04786F81B
:204690004C0008B16FF0010804E06FF0030801E04FF0FF38404606B0BDE8F0872DE9F8434F
:2046B00003F0FAFF244C0025A5704FF6FF70A08203F0C6F81F4E01232A462070314604F1D0
:2046D000A80002F08DFC02232A4604F1CC00314602F086FC04232A4604F1F000314602F081
:2046F0007FFC042704F14808102240462946E77000F00CFF04F1580910224846294600F0D1
:2047100005FF04F1200635602572072065721021A0724246E572022003F052FA0320102169
:204730004A4603F04DFA38463246014603F048FABDE8F88389930000980E00202DE9F047DE
:204750000F46064605F050FAEFF311898246202080F31188D6F80880474533D01D481E4B26
:204770000468002F05D49C690125BD4004EBC70401E0E4180025307D01281AD1304605F0A5
:20479000DFF9306C05F0D8F918B1F1685868884358601869864204D02046314605F0C8F9BA
:2047B00004E020685C61314605F037F9586828435860B760F5603464002F44BF0020586132
:2047D0000120188189F31188504605F001FA4046BDE8F087EC1400000001002090B507461F
:2047F000401EADF1140D18D0214C401E0BD0001F39D1204604F028FF10B9204605F001F936
:2048100001F0E0FA2FE0204604F01EFF10B9204605F0F7F804F098FD25E04FF441706946F3
:20483000FEF728FA9DF800009DF804308DF808009DF805108DF80E309DF801408DF80F107F
:204850009DF803008DF809409DF802308DF80D0002AA8DF80A3000208DF80C0008218DF8BF
:204870000B00FFF735FD034805B0077090BDC0466002002008020020002A4AD05FEA000CE6
:204890008B071CD1830722D1102A08D370B4103A78C978C0103AFBD270BC103238D0042A55
:2048B0002CD3082A05D30C2A24BF08C908C008C908C008C908C092072AD0920F22E00B7842
:2048D0000370491C401C521E22D08B07F7D1C30714D18307D8D0121F12D308C903801B0C66
:2048F0004380001D121FF8D20AE008C903701B0A43701B0A83701B0AC370001D121FF4D243
:20491000121D05D00B780370491C401C521EF9D1604670472DE9F843002A894607464CBF93
:2049300047F6FF75151C002F08BF002032D03888002808BF002403D02A4600F01BF9044609
:20495000281B26DD388828B1291B484612A202F0A3FC0419B868E0B1D7F804802E1BB8F13E
:20497000000F0DD0404604F0E5FD401DB04207DC291B484609A2434602F08EFC04192E1BC5
:20499000122E06DBBB68291B484606A202F084FC04192046BDE8F8833A2000C0222573223E
:2049B0002C2000C06C696E652025643A2000FEE72DE9F843224D884606464FF0FF3105F10C
:2049D0002400814605F0D4F800200CE0FF2909D02A688A4204D905EB8101D1F894700FB1D4
:2049F000002627E0401CB8F1000F03D018F82010FE29EBD10024346074600127B46011E0B7
:204A1000FF280ED005EB80000B787268C0F8946007FA03F0104370600A680A49304603F0C3
:204A3000ADFC641CB8F1000F04D008EB84010878FE28E5D1484605F097F83046BDE8F88335
:204A5000D02A0020007FC7672DE9F8432020EFF3118780F31188214CA068012105F064F880
:204A70004FF001094FF0000865692168A4F81C906A1A2168A4F81E80461B401A904227D329
:204A900087F3118840464519361A4846294605F047F8B042F7D92021EFF3118781F3118804
:204AB000E18B012903D14046294605F039F8B0F1FF3F06D0A169801B814238BF081C4119CF
:204AD00001E0A069291805F027F8A4F820902560A4F81C8087F31188BDE8F88378010020B2
:204AF0002DE9FE4F8046B8F1000F01920C9802919B46009005D0081C03D0101C01D0009829
:204B100010B90220BDE8FE8F1948017800252C4629E0A00038F800A04FF6FF7708EB0006CA
:204B300057451CD0B778D7B10198029A594604F01FFD5FEA000912D0780806D3009B504684
:204B500001214A4601F072F90543B078800806D33088009B02214A4601F068F9054304487A
:204B70000178641CE4B2A142D3DC2846BDE8FE8F980E00209EB513460C461F4A1D49128837
:204B90000988824206DB13A219460346204602F083FB9EBD194A1788814207DB04F006F9A7
:204BB00042681946204602F077FB9EBD002F08BF0BA2E9D00094002B48BF47F6FF73104F87
:204BD000002101933C6802910E496A46A04702989EBDC0467B6D6F64756C652325647D00C6
:204BF0007B6D6F64756C652D726F70653A25787D00C046C06EA10000D8A100008E1400007D
:204C1000D4A100000D8000002DE9F04107467D68D5F8BC00C8B3FBF72DFD1D4E0024804694
:204C3000F46004203060022004F0A5FE6868D5F8A8102246034638469847022003F036F9FC
:204C50000CE08069C5F8BC006868D5F8BC102246034638469847022003F028F9D5F8BC00C0
:204C7000D5F8C0108142ECD12C722046C5F8A800C5F8BC00C5F8C000064B346038461C60C9
:204C900002F066F94046FBF7F9FCBDE8F081C04604280040100405422DE9FC4174250C4625
:204CB000804600278DF8005028460DF101010122234601F0CFFF061C1BD19DF801009DF830
:204CD000017010F0030F07F0030715D09DF801000DF101010122234600F0FC008DF80100C7
:204CF0006846FFF78BFCA26C6168064642F2107090470FB1002ED7D0B8F1000F11D086B95E
:204D10009DF8010008F003070DF101010122234600F0FC0007438DF801706846FFF76EFC25
:204D300006463046BDE8FC812DE99843FBF7A2FC1F4CDFF87880814604F1E000007850B9A7
:204D50004446A0680146022088470746102002F08FF92FB320E001F001F9002820460FD147
:204D7000144909683222B2FBF1F101B9012100F130042046FBF786FC2046FBF787FC0FE0CD
:204D900044460022A16880F8E020022088470746102002F06DF91FB1A068014603208847FF
:204DB0004846FBF76BFCBDE89883C04670A1000080180020B8A1000080B54268C2F8A810C3
:204DD0000868C2F8AC004868C2F8B000D2F8B0708868C2F8B400C8681949C2F8B80097B937
:204DF000D2F8A800007C400040F0010041F8040C022010720B68DB0917D2D2F8B820022A49
:204E100017D30B2216E0D2F8A800007C0123400041F8040CD2F8AC001372431CC2F8AC30EA
:204E3000007848600868C00902D34FF0FF3080BD022003220A6004F09EFD002080BDC046E6
:204E50000428004070B51F4CA568064604F0E0F94FF47A71401B4843050C03F059FC216929
:204E7000401A48BF404240F6B831AD19A94211D306280FDAA268E1688A420BD8206848B1F1
:204E9000891A114A51438A0C02EB1141884288BF011C08E00D49486840080ED208687D2149
:204EB00000F0FF004143C82905D3B1F57A6F88BF4FF47A6103E0C82101E04FF4FA61084619
:204ED00070BDC046A82C002040420F00AC3F005038B504468A6B91F91400642302EB82020D
:204EF00080321212504390FBF3F5088AA4EB001491F91500A4EB6504504390FBF3F591F96A
:204F10001600504390FBF3F05043801190FBF3F040194D8A00F58040684391F91850C97D10
:204F30008012604384136A43644392FBF3F202EBC1110A11A112514300EB610081127D2032
:204F5000484305494012814203DB002848BF002038BD084638BDC046A08601007CB504206C
:204F700003F0CAF9022818D0032816D01A480068C0F38150032814BF41F288324FF47A72E0
:204F90001748184C016854342046B2FBF1F1FBF779FB2046FBF77AFB7CBD4FF08056D6F809
:204FB000A4010E4D406803214FF040521C230446009100212846A047D6F8A40101214FF4DC
:204FD0000072092340680091044600212846A047022002F06BFF7CBDB43F005000A00C4044
:204FF000B8A1000080180020FEB5FDF7EDF81F4C002504F1580603F05FFF38BB009501A89F
:205010000DF106016A4603F056F8D0B9BDF80400102807D160789DF80610884202D1009880
:2050300004F022FC009860B104F0DAF809E0A06804F011F8071C04D003F0A0FF384604F0F6
:2050500093F8A06804F078FD0028F0D06088C108D1D320F0040060802078062818BF02284C
:20507000C9D1304604F0CDFCC5E7C04608020020F8B51F4CA0F5C060D4F8B810C4F8D40086
:205090000029B8BF49420028B8BF404281422BDA4FF08057D7F8A401B4F8BC10154D4068E0
:2050B0004FF47F4208230646009128463021B047D7F8A401B4F8C01040684FF4F802122314
:2050D0000646009104212846B047D7F8A401B4F8D01040684FF440620A2306460091202181
:2050F0002846B047012000E0002084F8D800F8BD8018002000A00C40F8B5001D84B214F069
:20511000030002D0241A241DA4B203F07DFF01461948102C47680160C8BF8768388800221A
:205130001646C30BDD0319D126B984420ADD3A46012617E01388C3189BB29C42138011DC20
:20515000174618469FB1001B80B20428B4BF3C88385344F400443C803F1D08E080F40040C9
:20517000002680B2C71938880028DAD10027084604F06DF93846F8BDA0190020B0B50446CA
:20519000A768ADF1280D27BB0C20FFF7B5FF071C16D0684600212422082304F0F9FC002310
:2051B00006976A466168ADF810301448059304F0AFFC386038B904F03FF9384602F0ECFF41
:2051D0006FF0030018E0E06878602069B860A7600AE003F019FF0546386803F0D7FD20696D
:2051F000B860284604F033F938686168FBF74AFA3868FBF74BFA00200AB0B0BDF5970000B0
:20521000B0B514460F46FBF735FA85B219480068007808B903F0DCFE87B1384603F047F95A
:2052300040B114B14FF0FF3020700820FEF75CFA002419E038687968BA6803E04FF4807061
:205250000122014602F03AFC0B49012008600B4908684008FCD30A480068416802208847A0
:205270000CB10021217004462846FBF707FA2046B0BDC04680A10000A80250420880024004
:20529000CC0100107FB50346101C8DF8003009D00DF1010400228B5C521C04F8013BD2B2B4
:2052B0009042F8D8174C2168762281F8A420401CC1F894D00026C1F898003546C1F89C605B
:2052D0003046C1F8A05000F05FF8216801200E46843102F073FD2168C6F88000D1F8800033
:2052F00048B1943104F000FB2068D0F8800004F0F6FA2B4600E00123284604F0C7FA184647
:2053100000907FBDC82C0020F8B50E46044604F067FC0546304603F073F8071C03D1284677
:2053300004F05AFC26E0F87F10F0070F1BD113487968884202D079682166786010A090E854
:20535000060004F15807284687E8060004F044FC04F138004FF0FF3104F00AFC04F16806D3
:2053700096E80300F8BD284604F036FCF87F10F0070FFBD102200021F8BDC046156C00007B
:2053900002000000000000702DE9F8431C4EDFF8748005464FF47A7974190DE02078C0B9F9
:2053B00029460DA003F07EFE04F06EF940460068B9FBF0F004F0CCFB02273246002012F8EF
:2053D000011B7F1E0844C0B2F9D10028E6D101202070BDE8F883C046446576696365202531
:2053F000642069732077616974696E6720666F722074686520696E7465726661636500C0D1
:20541000CC2C0020B8A1000010B5B0F5C87FC8BF4FF4C87091F93D3083224FF4803402FBC8
:205430000343184AB1F91A40121991F90E4000B25043142290FBF2F00A2200F5481090FBC1
:20545000F2F291F9190000F54470424391F91C0091F83C1060434FF47A74091D90FBF4F0A3
:20547000000241F2810400EB620090FBF1F0322290FBF3F000EB0010001B90FBF2F0C0B2F2
:2054900010BDC046995902002DE9F043ADF13C0D04F0AAFB1A4C184D002680461C3C6846AF
:2054B00000213C22082304F02FFB54F8042F6868AF6806902B680897694605920F480493B2
:2054D000002204F01DFB071C10D003F09DFD8146384601F033FC48B1484603F0B8FF2D1D1E
:2054F000761CDCD0404604F073FB01E001F0B4FE0FB0BDE8F083C046449D00000996000095
:20551000AC190020002213460A46194671B510F0030F0BD0002A82BF00F8011BB2F1010234
:2055300010F0030FF6D1002A08BF71BD11F0FF0141EA0121042A18D341EA0141082A0FD37B
:205550000E46102A08D30C460D46B2F10F0312F00F0272C0103BFCD812F0080F18BF42C022
:2055700012F0040F18BF40F8041B12F0020F18BF20F8021B12F0010F18BF017071BD70B50C
:205590000D4616460446ADF1300D00210A226846FFF7BCFF00210A2203A8FFF7B7FF0021B6
:2055B0000A2206A8FFF7B2FF00210A2209A8FFF7ADFF5A208DF8000060883146FFF724FF43
:2055D0008DF80C0064208DF81800A08803F01CFA012233468DF8240003A900202870684681
:2055F000FFF70CF828B906A809A901223346FFF705F80CB070BD704738B5054601201A4C72
:2056100068712879B0B903F0FFFC2178002904BF6FF00704051C15D0491EC9B2217039B94F
:2056300003F015FF606802F001FD0020687118E0054613E003F0E8FC05462078FF2805D1B5
:205650006FF00604284603F002FF0BE0401CC0B20128207002D1606802F0FFFC284603F014
:20567000F6FE0024204638BD6420002070B50646B079F5680C28A5F108052CDA30790C2852
:2056900029DA03F0C1FC154CB27991000C3401EBC20161184968E1B103F0D9FE3079287074
:2056B000B0796870307AA870B179880000EBC1002018F1684068083002F0B0FDB1798800F7
:2056D00000EBC10024186068406804F04DFA002070BD03F0BCFE6FF0020070BD001A002065
:2056F00038B519491A4C00204822C1F8F30F94F8E200C1F8FF2F20B3012817D0022807D067
:2057100003281ED151F8310CFFF7B2FC0B2016E051F8315C2846FCF707F940F2FF50A84272
:2057300002D8801CA842F1D2082008E051F8310C00F0FEFD054800780028E7D0052084F870
:20575000E400FCF771FC38BD39400C407EA10000801800202DE9FF410E460546194C718811
:20577000E08A81420CDCB188814209DBF088218B884205D13089618B884208BF18271DD0FE
:20579000052001F089FE7788B388ADF80270F288ADF804303189ADF806208046ADF80810B0
:2057B000A08AADF80000684604F00AF8071C05D1A57304F1F000414602F00AF838460090E7
:2057D000BDE8FF81980E002038B503F035FFFCF783FA174C201D04F11001FFF7E9F80521A7
:2057F0000023144A206004F11C0002F0B9FF4FF08055D5F8D801104C036801210A46204684
:205810009847D5F8D801426801212046904702F007FFFFF739FE01F083FD01F0F1FE01F083
:20583000FFFD01F01BFE04F067F9002038BDC046681F0020858A0000004003402DE9FC4157
:205850001A4CA01C184D007828B928686421B1FBF0F004F07DF902F00BFF04F110004FF00D
:20587000FF31FEF76BFF28680026FF274FF47A710F23B1FBF0F8B3FBF0F502E0404604F0CA
:2058900067F960788DF800600128F7D18DF800706846FCF73FF9304606216A4600F09CFF44
:2058B000A088401BEBE7C046B8A10000B41100201A4898B5D0F8781203680F0F03F0FF03C0
:2058D000802B28BF002301F067FB4FF0FF3478B1401E07D0401E012802D9801E19D01AE0FD
:2058F000BFB118E0381C12D0801E14D1143311E03846401E0BD0801E07D0001F03D0401EC3
:2059100009D1163306E0152405E0142403E00A2401E00A335CB2204698BDC046A01000501A
:20593000174870B50068C0F3046003F0F7FE154B0246187800F01F0003F0F0FE82421ED092
:20595000114E124C002101253160111A022905DC11F1020FB8BF6FF0010100E0022108185D
:20597000216800F01F0141F4F851A3F8661082422560EAD12068256020683560206870BD0C
:205990008813005006620840980020432C2009402DE9F8430024002B16460F46804625464A
:2059B00006D5002FC3F1000302D57F42761E2D2599463846494601F013FD0CA0405CB7FBB1
:2059D000F9F7002F04F1010408F8010DF1D1A64205DD3021301B401E08F8011DFBD10DB162
:2059F00008F8015D4046BDE8F883C046303132333435363738396162636465660000704774
:205A10001CB5194C401E02D0401E21D01CBD6078FF2817D00120694602F042FF9DF800006A
:205A300038B900200622014603F0B2FC4FF0FF3100E0012104F11000FEF780FE9DF80000B7
:205A500060701CBD0120FF21024603F0A1FC1CBD0220694602F024FF9DF80010241D64204B
:205A7000484320801CBDC046B41100201CB5194C401E02D0401E21D01CBD6078FF2817D0B3
:205A90000120694602F090FD9DF8000038B90020FF210E2203F0C7F94FF0FF3100E001218D
:205AB00004F11000FEF74AFE9DF8000060701CBD0120FF21024603F0B6F91CBD0220694681
:205AD00002F072FD9DF80010241D6420484320801CBDC046D4060020F8B5174A174B184C13
:205AF000121D22F003019C4621605E1A2068256860606768A660002001E025F8020BAB42B4
:205B1000FBD84FF6FC75B3102A4001EB830323F8040CACEB0202E82315403B80EC3DA1F8AA
:205B3000E850E83144F8081CFFF7E6FA44F8040C606844F8080CF8BDD62C0020483F0020EC
:205B5000AC19002038B504461848174DC03002686B68C2F30351C2F303405B0813D22B684C
:205B70001D0511EB257103D41029A8BF0F2100E000211B0410EB237303D4102BA8BF0F235E
:205B900000E00023184640EA011002F47F4102F0FF03222C41EA004143EA010024BF02F0F2
:205BB0008042104338BDC046AC3F0050B812005030B5401E4FF00004ADF12C0D0AD0401EDB
:205BD00004D0401E20D1FCF72FFA1DE000F0D8FD044619E001A821462422082303F0D8FF26
:205BF00006940D4DADF8144009490794012201AB05F1780003F0C8FF064A23462C2105F1C8
:205C10009C00009303F0D4FF20460BB030BDC04621620000F15600008018002038B50546B1
:205C3000880F26D301F0B0FC124803F0B7FD1548801C0078012803D005F1380003F094FF05
:205C50000D4800240460022002F030F91120FDF74BFD287C10B90E20FDF746FD0748084A3A
:205C700004721178447221B11470C830042103F0CBFB38BD69390000000004607014002094
:205C9000D42C0020701400202DE9F041054615F8017B90460E461CE0B8F1000F05F101053B
:205CB0000BD0FF2C09D8022015F8011B401E41EA0424F9D101E0042C02D315F8011B00E038
:205CD000394630462246FFF721FCA61901E006F8010B15F8010B8742F9D115F8014B002C69
:205CF000E9D115F8010B2C7800022418D4D1BDE8F081FEE70146184880B5983000688A0C9D
:205D1000C0F38367C0F38F2022D241F3072100290BD54A420021400805D17F0806BF0127DC
:205D3000381C4FF6FF70521EF5D1002910DD4FF6FF72400040F00100824207D2780040F093
:205D500001070F2F92BF01200F27101C491EF0D140EA074080BDC046B8120050164880B590
:205D700007683FB315498B6803EA5300C00E21D2134A106880081DD2486880081AD2106878
:205D9000096810F0050F4FEA114101F0F00101F5E0710AD1B9420DD2190F38BF40F00100B5
:205DB000D90E38BF40F0040003E0B94202D920F00500106080BDC04628500940AC3F005044
:205DD0000000094000B540F21630ADF1140D6946FCF750FF40F213300DF10201FCF74AFFDB
:205DF0004FF4467001A9FCF745FF9DF800008DF80600BDF8000000128DF807009DF80200AF
:205E10008DF80800BDF8020000128DF809009DF804008DF80A00BDF8040000128DF80B000B
:205E30000DF1060002F0D4FB05B000BDF0B50E461C4615460746ADF11C0D03A902F0B6FEFF
:205E50000246059212B300200090BDF80C000DF1120329460190FF2002903846A047041CD4
:205E70000FD16889ADF81000700804D3384604A903F04AF903E0384604A903F053FD041C6B
:205E900005D004A81B2102F0EDFF00E01524204607B0F0BD70B544688668D4F8A40002F053
:205EB000A4FF13480025C5600560124805607068FDF71AFC04F1100003F01AFE04F12C0053
:205ED00003F012FE04F1600003F00AFE207818B904F17C0003F004FE04F1C80002F006FFDC
:205EF000FAF7C8FB84F8DC50FAF7C8FB70BDC04604280040100405427FB5446819B98068EE
:205F1000067D457D01E00E784D78FF2E1FD0FF2D1DD0114941EA06000090FE220292294390
:205F300004F1980001916946FEF742FDC4F8A400D4F8A40058B131460D2202F009FAD4F80F
:205F5000A40029460E2202F003FA002001E04FF0FF3000907FBDC0460020008438B501200C
:205F700002F0CAF9012820D0114DD5F82401C4681048342101220023A047002808BF0020DE
:205F900014D0286802F000FC03F042F90B4A0A4D93681168D060C01AA1EB910105FB00F326
:205FB000180C884228BF011C1160012038BDC0468000001000A00C4040420F00A82C002051
:205FD000D0B50E4614460746ADF1480D00210C226846FFF79BFA12493C2203A8FEF74CFC15
:205FF00003A8009008A801900DA80290204603F04CF880B97FB138462146FCF7ADF9002228
:2060100028B9397831F07F010CBF02200122002E18BF327001D14FF0FF3012B040B2D0BD05
:20603000109C00009EB5074616480A466946C01D036880880B600024888007B3781C05214C
:2060500002F0B2F9D8B9B81C052102F0ADF9B0B93846052102F0A8F988B97878BC781DF856
:2060700000103B781DF8040040181DF8031040F2AB7241F2AD47091888B202FB007420460C
:206090009EBDC046009C00007CB5174C8DF800002068762380F8A430C0F894D00125C0F873
:2060B0009850C0F89C10C0F8A0200020FFF76CF9216828460E46843101F080FE2168C6F8DB
:2060D0008000D1F8800050B1943103F00DFC2068D0F8800003F003FC0020054600E00020F8
:2060F00003F0D4FB28467CBDC82C00202DE9F8438146EFF31188202080F311880125114EAF
:20611000114CF561114F6560F86A016A14208847D9F81000810C14BF000C0420A0613868B5
:206130000268232100209047C6F88052206820F4C02040F480302060356088F31188BDE8EC
:20615000F883C046000024430020094084010010D0B5044603F014FD00F0F0FD071C08BFAF
:206170006FF002041FD002F04FFF0146A2880F480023543030F80C6F5EB902804760A2681F
:2061900082602373786820610024084603F05FF909E0964208BF6FF00204F6D05B1C0C2BF8
:2061B000E8D301F059F82046D0BDC046AC1900202DE9FC41144C154F06468846700809D36F
:2061D00020684568002101220B461FFA88F000903846A847B00809D3206845680021022249
:2061F00001231FFA88F000903846A847F00809D320681FFA88F600210C2202234468009634
:206210003846A047BDE8FC81A401001000A00C401648144A144908B5E4300078801E0A2814
:2062300007D8DFE800F01814100614100614100609C003F0B1FC11E010688008FCD2506842
:206250008008FCD20AE008688008FCD306E008688008FCD202E010688008FCD3FBF7E4FEF6
:2062700008BDC04634600C4038600C408018002010B5FAF7FFF9114C611C097829B10E498D
:206290000C68FAF7FBF9204610BDFAF7F7F903F029F90DA20CCA03F093F8A26C0023140024
:2062B0001B1807A044EB010490E80600C91842EB04021046001C10BD0430044070140020D3
:2062D000000000127A00000000093D0000000000BCB502460D46084602F0D7FE071C25D1A2
:2062F000802AACBF00201020697B81421ED02C6C6B68687369460122F320A04785F84C00B9
:2063100090B9687B9DF800106C6C6B68012200F0100001F0EF0101438DF8001073206946D2
:20633000A04785F84C0008B16FF001073846BCBD134910B50A684BF2F5214843040AC2F352
:206350008140012806D102F0E3F901F0FFF8604304EB90540C4901F1E500007830B9094862
:20637000006820F07F402418640802E0002081F8E50006480460210C41600123836010BD7A
:20639000B43F005010200940801800203C600C40F8B506AF38881D4614460E46002818BF5F
:2063B0000B2023D10846694602F056F8012803D1002028800120F8BDBDF800704AF601511F
:2063D00000207F1A0BD07F1E012F84BF28800A200CD801212980F16809782170F8BD062141
:2063F0002980F1680A6822608988A180F8BDF8B506AF38881C4616460D46002818BF0B2053
:2064100023D10846694602F027F8012803D1002020800120F8BDBDF800004BF60171002748
:20643000401A0BD0401E012884BF27800A270BD801202080E8680078307005E00E222280B2
:20645000E9683046FEF718FA3846F8BDB0B5044603F022FA30F0010008BF6FF004041ED030
:2064700003F08EFB054602F0CFFD01460D480C22603030F80C7F6FB1A388BB4208D14068B1
:2064900000680022854208BF0122A260002403E0521EEED14FF0FF34084602F0D8FF20468A
:2064B000B0BDC046A0190020B0B5144D28680004070C21D002F02CF9114991F9072082423C
:2064D00005DD10F1800FB8BF6FF07F00C8718C88BC4210D80A68D5F8D40F801A801C1F2813
:2064F00088BF1F203F1B4008C7404FF6FF70E719B84238BF071C8F80B0BDC0463410094086
:20651000BC2C002098B5134C0C342068011D4068406810B180472168091D08680830016839
:2065300009B94768A7B10C4A1C321768002FFCD00023136029B1084680472068001D0068D2
:206550000830406800B180470448503802F0AEFB98BDC046701400200010044051000706B3
:20657000F8B50E46F18BC410A4EB4104E7176008F9070843024679100B4602F021FF020BF4
:206590000805024396F922000B130001C11702F017FF850B88040543B6F920003B462246CD
:2065B000C11702F00DFFC00A490508432D18B56305EB850580350FFA95F0F8BDF8B50746C9
:2065D000FAF758F8124C06462079E0B1401EC0B22071C0B904F1C800082102F015FF97B188
:2065F000E068703002F0D2FBE0680A4DC0683F1A286804F1A405B7FBF0F12846FAF742F86A
:206610002846FAF743F83046FAF738F8F8BDC04670140020B8A100001549096821280ADC83
:20663000212819D00C380FD00D380FD0001F0FD0C01E0FD01AE0253810D0001F10D0401E82
:2066500010D0401E10D011E0086870474868704788687047C868704708697047486970476F
:2066700088697047C8697047086A704700207047F0010020F8B50646B08815460F46FEF793
:2066900079FA0446002D02D4281B0A2806DB3368291B38460BA200F0FFFD0419B08978B15F
:2066B000002D06D4B06802F045FF291B401D884206DCB368291B384603A200F0EDFD0419AF
:2066D0002046F8BD257000C0282725732729000038B505466C68237AD4F8A810002203B9F8
:2066F000012263689847D4F8BC00D4F8C010814211D08069C4F8BC00D4F8BC102846FEF799
:206710005BFBB0F1FF3F0ED10320207204F12C0003F026FA38BD0020C4F8A800C4F8BC007B
:20673000022001F0C3FB38BD38B50C4620B141680122A240114201D1022038BD9143416014
