:20000000483F002065620000FDC90110FDC90110FDC90110FDC90110FDC90110FDC9011068
:1C002000FDC90110FDC90110FDC90110FDC90110FDC90110FDC901103BCA0110A4
:20003C002DE9F04F09AFADF13C0D00900292388801911E46ADF83400101C08BF002000F0FA
:20005C00828100274FF0010B00F10109B846DA466BE1252940F062811078521C02922D286A
:20007C0018BFADF8228004D11078ADF822B0521C029230281CBF4246434605D1114608787F
:20009C005B465A46491C02912A284FF0FF3516D128460B93346809900299CDF81C80E01C26
:2000BC004B1C20F00300001D306050F8044C08780293002C44BFADF822A0644212E0444698
:2000DC0009E0610001EBC40140180299A0F130040878491C0291302801DB3A28F1DB0B93D9
:2000FC00294609912E282BD10299087843462A2801F10101029111D1099330680794C01C7F
:20011C0020F00300001D306050F8045C002D48BF454608780995491C029112E045460AE01F
:20013C00690001EBC50140180299A0F1300508782B46491C0291302801DB3A28F0DB0993E9
:20015C0007940AB122460B926C2804D04C2818BFADF8208005D102990878ADF820A0491C75
:20017C00029103A9CDF8288007AB0E9164280C9300F08B80692800F08880BDF834C0752871
:20019C0072D078286ED06F286AD0702850D063283DD073281ED0019802990128A1F1010188
:2001BC00029115D96B490C68B5F1FF3F03D0A84288BF6D1C00D8019D0995684602A9324624
:2001DC0007ABA047C71902990A9801F1010974E040462AE030680299C01C20F00300001D2E
:2001FC00306050F8040CBCF1000F01F10109014608B956A001460E9108F048F80A90B5F1E7
:20021C00FF3F5BD0A842C4BF281C0A9056E03068C01C20F00300001D306010F8040C5D46E9
:20023C008DF80C0002990A95584601F1010945E0082035680B90E81C20F00300001D3060F4
:20025C0050F8041C0822102307A804F079FD401E0E904021017002990E9801F1010929E090
:20027C00082302E0102300E00A230299306801F10109C01C20F00300001D306050F8041CE2
:20029C00AA42BCBF2A1C0B9210E00299306801F10109C01C20F00300001D306050F8041CD5
:2002BC00AA42BCBF2A1C0B926FF0090307A804F047FD0E900C9D281A0A90079CBDF8225099
:2002DC00241A65B906E06846202101AA07F07AF8079C7F1C641E0794F5D50A9800E007947B
:2002FC000546401E0A9075B9BDF82200E8B10798401E079019D46846202101AA07F062F895
:20031C0007987F1CF4E70E98411C0E91017801AA684607F057F80A987F1CE1E7684601AA94
:20033C0007F050F87F1C09F101094A46029812F8011C401C002902907FF48BAE009808B15E
:20035C004146017038460FB0BDE8F08F286E756C6C2900C02C8D00002DE9FE43AF4C0F46FC
:20037C000646F80B80F03581B80880F0C7806069B90F67D2A07A002848D1380948D30025CF
:20039C00657001262672284607F05AFBA44808F0A9F8A4492A4604F14C0008F0C9F960793D
:2003BC0001281AD1A079C0B99F4E306870B107F045FF6169236A3268401A000BE061C0182B
:2003DC00B0EBC21F28BF256208D2206204F1C8004FF0005107F0C4FE31E0667104F138019F
:2003FC0040F60900088094F8450000F0F00040F0010084F84500658794F8440000F0F000DB
:20041C0084F84400E563894E316018E0380914D2B80BC0F0FB8004F1280008F094F9061C7F
:20043C0008D0706830B17568F068B6F91C1082A20CCAA84727F40057E8E00020A07227F093
:20045C000807E3E0D8B1042006F0E4FEB8B107F0F5FEA0616169814226BF401A401E401A51
:20047C00000BF060F06840F6C41100F58D708142F06003D340F2EE22824200D9F160002572
:20049C00D6F818C06561BCF1000F0FD094F8450010F00F0F0AD1708C40F60901814205D19A
:2004BC0067A20CCA30466FF48071E047604904F14C002A4608F03CF9A07950B10220ADF8E8
:2004DC000000684607F0CCFAA571BDF80800A4F8A000012060702079A846401C20711920E8
:2004FC0084F8078007F06CFF756925B156A20CCA30464146A84727F0005787E004F130090A
:20051C00484608F020F9061C5AD006F00CFA4FF00008B269C6F818807068B8B1F07F42F03E
:20053C000202002300F00700401E07D0401E03D0801E06D146A002E047A000E048A090E8B7
:20055C000C007568F068B6F91C10A84700F08CF80546B4F93600401C6FF31F30E086206BD4
:20057C001F30017801F07F010170484607F074FD284600F07DF8F068B0F99410B4F9362044
:20059C0091421DD1217801291AD090F8965095B9056885B1E1680968B1F1FF3F10D025498A
:2005BC0009687030B5FBF1F100F066F8F068703000F066F804E080F89680404605F0B0F853
:2005DC00484608F0C0F827F0020708B147F002071CE000F049F8014604F12C0008F0B3F870
:2005FC000646B569084600F043F8A8080CD25EB1B069A843B061706830B12A46F068B6F91A
:20061C001C1075680023A84727F4804727B104F1C800394607F0A4FDBDE8FE8310160020A9
:20063C007D4F0000217800007C2E00200010044061270000148D00000000000020000000D2
:20065C00000000000000000200000000000000040000000000000010000000000000004028
:20067C000000000000000020DFF800F045C10110DFF800F015C20110DFF800F0BDC201105A
:20069C00DFF800F0DFBF01102DE9FE430646DFF8DC82DFF8DC92B2780024101C00F035818B
:2006BC00801E00F00D81401E012840F2E180801E00F0A880401E7BD0401E59D0083800F0D2
:2006DC004681801E40F046814546B08895F83E70ADF80000052F45D001208DF80A0005F110
:2006FC00CC0008F034F895F83E0001281BD0042819D0032806D0022804D0F28831897089CE
:20071C00B38907E0B5F84020B5F84210B5F84400B5F84630ADF80220ADF80410ADF806004F
:20073C00ADF8083020E0B5F84000F1888842D8BF081CADF802003189B5F842008842D8BF24
:20075C00081CADF804007189B5F844008842D8BF081CADF80600B5F84630B0898342D8BFDD
:20077C00031CDDE78DF80A40684607F0D3FEF1E0454605F1F00007F0EAFF7078002840F0D3
:20079C00E980F088E882308928837089688305F1CC0007F005FE002840F0DC80AB6A002BFA
:2007BC0000F0D8801B68E88A298B6A8B9847D1E0B08806F0A9FF45462146062205F1380089
:2007DC0004F0F2F8EC822C836C83B079687305F1CC0007F0BCFF05F1F00007F0B8FF0124E2
:2007FC004FF6FF706F79A8824FB9B079082814BF04200520A870204607F05EFCAAE003201E
:20081C00A870A7E0707858BB311D0A68454605F138000260898881800627AF707089A882C6
:20083C00F089E882308A2883708A6883F0784446287394F83E00012818BF02280AD11F20D4
:20085C0005F04AFE4FF47A71024604F1CC00514305F0DEFFF0787289311D05F069FF7BE039
:20087C00707831286FD14D4604202870204623E07778002F67D14546698AA878032A13D01F
:20089C002A796F7921B9012A14BF6C712C7106E0174304D005F1A80005F0BAFFA8780728B0
:2008BC0014BF0420062007E0062807D02879002808BF0324DAD00220A8704DE00724D5E764
:2008DC007078751C00283ED14246F7789078D1799FB9022816D0072814D0062802D15179BD
:2008FC0001290FD103280DD002F1A80007F058FD40B9012007F0E0FB04E08732204605F0FF
:20091C006BF928702878F0B924E07078D8B945460220102105F1480206F058F90320102140
:20093C0005F1580206F052F9F61C05F12C00B7883168878005F1680201600120A979A870DB
:20095C0005F04AF940B108204D46287004E0B08807F0D4FD012C06D14546686A18B1016888
:20097C0009B1A8788847BDE8FE83C046F4120020F6120020F8B5A0F2013517460E46022DE3
:20099C0040F20C818649874C874A884B2D1F0F2D04D9143D4AD0AD1E1CD011E0DFE815F0F2
:2009BC00BA00B500EB00DB00AE00A700FE009F00980010001000900086007A006F006200DB
:2009DC00282880F2EB80022E40F0E880398805F0DFFFF8BD012E40F0E1800A46907801287C
:2009FC0000F0DC80D1783878D07081B9002800F0D5801078012800F0A080042800F09D80B5
:200A1C00062800F09A80052800F09780F8BD3878002840F0C3801078032800F09980072863
:200A3C0000F09680052800F09380F8BD012E40F0B5803878012840F0B180254605F1F00090
:200A5C0007F0AEFC002840F0A98004F13E01002004F0CCF8002840F0A18004F1CC0007F01B
:200A7C0076FEF8BD022E40F0998038880A28C0F29580B0F5486F00F39180114614E0022E24
:200A9C0040F08C803888B0F5FA7F80F2878011460880F8BD022E40F08180388806287DDB6C
:200ABC00B0F5486F7ADC1946891CF1E7022E75D13888062872DBB0F5486F6FDC1946E7E707
:200ADC00012E6BD13878062868DA1146891F0CE0012E63D13878042860DA093105E0012EBD
:200AFC005CD13878082859DA08310870F8BD012E54D13878042851DAC91DF6E7012E4DD1C9
:200B1C00387804284ADC891DEFE7022E46D138881031BDE7012E41D10A46D07801283DD040
:200B3C0091783878907061B9002837D01078012803D0042818BF052830D1012007F0BCFA14
:200B5C00F8BD387850BB1078022818BF052825D107F0D6FBF8BD254600211F2205F1870492
:200B7C00204603F021FF39463246204603F0A2F90020EE710EE0254600211F2205F1680459
:200B9C00204603F011FF39463246204603F092F90120AE713146224605F01EF8F8BDC04610
:200BBC00F6120020F412002038130020341300202DE9F84F82468548DFF8049235380068C5
:200BDC00800880F0EE8006F0B3FC064683480830D0F8008000254FEA2874641C5FEA9850AC
:200BFC000AD2C6F13E0016F10A0F4FEAE000D8BF08208442B8BF041C6E485FEA98610FD2DA
:200C1C005FEA58610CD38346DBF80000C0F3042007F028FC0746DBF80000C0F304600CE026
:200C3C0083465BF8D00CC0F3046007F01BFC0746ABF513700068C0F3044007F013FCE719A6
:200C5C008346162F05DA17F10A0FB8BF6FF0090700E01527584A594807F01F0141F4F85190
:200C7C001180006810F0030F18BF0125C00828BF45F00205BAF1000F18BF45F00405494607
:200C9C0091F90700301A052804DA8879A84208BF888865D0DFF82CC10F2EA6F10F0E26DBA5
:200CBC000EEB0610A0F1F00E4FEA2E20072888BF07200446062C88BF06245CF8249004223B
:200CDC00634602EB84029A58EC08A2EB090202F0FF0324BFC2F307242344AC0824BFC2F3F4
:200CFC00074423446C0828BF03EB126301E0002318465CF820C0EC080CF0FF0224BFCCF33F
:200D1C0007242244AC0824BFCCF3074422446C0828BF02EB1C629BB2AEEB00246343BBEB03
:200D3C00070003F1800302EB1322D8BF012008F0FF07342343437B43B3FBF2F04FF6FF7260
:200D5C00824238BF101C802E80B2888005DA16F1800FB8BF6FF07F0600E07F26CE718D7116
:200D7C00194A12681F280A604FF0000208D340F2FF11814206D24008521C8142FBD301E0A8
:200D9C001F208880124F11490F38000942EAC00247EA0200C1F8FB0F0026C1F8FF6FBDE80F
:200DBC00F88F0D4F0B4E494608203760891D0870BDE8F88F881300506E62084024220840B2
:200DDC00742E00209C130050082009403500094000E7A48030100940FDFDA400AC3F0050DA
:200DFC002DE9F0411C4615468C4208BF854282BF00230022E5E0002C08BF002D0AD1002908
:200E1C000EBF00286FF000006FF0000100F0E1F8BDE8F0815FF000085FF0000E002C08BF7C
:200E3C008D429CBF2C1C0025070C47EA01470E0CB44208BFBD429EBF5FEA044444EA154428
:200E5C005FEA0545070A47EA01670E0AB44208BFBD429EBF5FEA042444EA15645FEA05257D
:200E7C00470847EAC1774E08B44208BFBD4200F29380870847EA81778E08B44208BFBD427D
:200E9C007CD8C70847EA4177CE08B44208BFBD4266D8070947EA01770E09B44208BFBD42CE
:200EBC0050D8470947EAC1674E09B44208BFBD423AD8870947EA81678E09B44208BFBD4224
:200EDC0024D8C70947EA4167CE09B44208BFBD420DD8E60146EA5566EF01B14208BFB84263
:200EFC0001D3C01BB14158EB08085EEB0E0EA60146EA95664FEA8517B14208BFB84201D34E
:200F1C00C01BB14158EB08084EEB0E0E660146EAD5666F01B14208BFB84201D3C01BB141A9
:200F3C0058EB08084EEB0E0E260146EA15762F01B14208BFB84201D3C01BB14158EB080833
:200F5C005EEB0E0EE60046EA5576EF00B14208BFB84201D3C01BB14158EB08084EEB0E0E43
:200F7C00A60046EA9576AF00B14208BFB84201D3C01BB14158EB08084EEB0E0E660046EA32
:200F9C00D5766F00B14208BFB84201D3C01BB14158EB08085EEB0E0EA14208BFA84201D306
:200FBC00401BA14158EB08085EEB0E0EA34208BFAA423EBF2D0A45EA0465240A89D3734679
:200FDC0042461E4617460B46024631463846BDE8F0817047024A08B51268904708BDC0462C
:040FFC00201600209B
:201000003C000000000000000000000034100000000000000000000001000000000000004F
:1C10200000000000000000000000000001000000000000000800000000000000AB
:20103C003400000000000000000000006810000000000000000000000100000000000000E7
:14105C00010000000000000000000000080000000000000077
:2010700030000000000000000000000098100000040000000000000001000000FFFFFFFF87
:10109000FF00000001000000080000000000000048
:2010A0002C0000000000000000000000C4100000040000000000000001000000FFFFFFFF2F
:0C10C000FFFFFFFF080000000000000020
:2010CC0038140000E410000095A1011091A70110A1C2011009B2011041B8011000000000EA
:0810EC00000000002F000000CD
:2010F400280000000000000000000000141100000000000000000000FFFFFFFF0000000093
:081114000800000000000000CB
:20111C00341400003011000065C2011069C101101BC2011091BA011000000000000000006D
:04113C002D00000082
:20114000341400005411000071C20110A5B6011099BF011045B601100000000000000000BD
:041160002E0000005D
:201164002400000000000000000000008011000000000000000000000000000008000000AE
:041184000000000067
:20118800240000000000000000000000A41100000000000000000000000000000800000066
:0411A8000000000043
:2011AC00240000000000000000000000C8110000000000000100000000000000080000001D
:0411CC00000000001F
:2011D00000000000341F0020040000000000000000000000200000007010000030000000B8
:2011F0001C110000601F00200400000000000000000000000C0000003013000018000000A8
:20121000401100006C1F002004000000000000000000000024000000481300001800000027
:2012300000000000741F002004000000000000000000000010000000A01000002C000000FB
:20125000CC1000007C1F00200400000000000000000000002000000064110000240000002A
:20127000FFFFFFFF9C1F00200400000000000000000000002800000088110000240000009E
:20129000FFFFFFFFCC1F0020040000000000000000000000580000003C100000340000005B
:2012B000FFFFFFFFD41F002004000000000000000000000010000000601300001800000070
:2012D000FFFFFFFFDC1F00200400000000000000000000001C000000AC11000024000000E6
:2012F000FFFFFFFFE41F002004000000000000000000000038000000F41000002800000057
:20131000FFFFFFFFEC1F002004000000000000000000000054000000001000003C000000F2
:1813300018000000000000000000000040130000080000000000000032
:1813480018000000000000000000000058130000080000000000000002
:18136000180000000000000000000000701300000800000000000000D2
:08137800010000001C8D0000C3
:0413800007F0B7B902
:041384000100000064
:0413880000000E0053
:04138C0000000F004E
:041390003200000027
:041394000100000054
:041398003C1F0020D6
:04139C00000200004B
:0413A0000000000049
:0413A400FDC901106E
:0413A8000000000041
:0413AC00000000003D
:0413B0000800000031
:0413B4000000230012
:0413B800E820002009
:0413BC00010000002C
:0413C000841F002066
:0413C400080000001D
:0413C8000000000021
:0413CC00000000001D
:0413D0000000000019
:0413D400080000000D
:0413D8000000000011
:0413DC00000000000D
:0413E0000100000008
:0413E4008021002044
:0413E80006000000FB
:0413EC0001000000FC
:0413F0005020002069
:0413F40000000000F5
:0413F80000000000F1
:0413FC0000020000EB
:0414000000000000E8
:0214040070472F
:021406002900BB
:021408000100E1
:02140A002500BB
:02140C002D00B1
:02140E002E00AE
:021410002F00AB
:021412000100D7
:0114140001D6
:0814180003000000E48C000059
:081420000000000000000000C4
:0414280000000100BF
:04142C0000000300B9
:0414300083C4011060
:041434003C14000064
:041438003C14000060
:04143C0000000000AC
:041440009000000018
:041444009000000014
:0414480000000000A0
:04144C00841F0020D9
:04145000098300000C
:041454002000000074
:04145800A08C000064
:04145C00B88B000049
:0414600009C30110AB
:041464002F600000F5
:04146800B763000066
:04146C0095C801100E
:0414700097C8011008
:041474000000000074
:04147800B78B00002E
:04147C00D08A000012
:04148000E88A0000F6
:04148400B88A000022
:0214880008005A
:02148A00090057
:02148C0001005D
:02148E0000005C
:01149000015A
:041494000000000054
:041498000000000050
:04149C00000000004C
:0414A0000000000048
:0414A4007787000046
:0414A800D568000003
:0414AC008D76000039
:0414B0002D6F00009C
:0414B4004B6D00007C
:0414B8005D6F000064
:0414BC008953000050
:0414C000F1840000B3
:0414C4009957000034
:0414C8000DC801103A
:0414CC001DC8011026
:0414D0000800000010
:0414D40024000000F0
:0414D80018000000F8
:0414DC0028000000E4
:0414E00020000000E8
:0414E4003C000000C8
:0414E8000C000000F4
:0414EC0034000000C8
:2014F0002DE9F04F0128ADF1140D40F0F280DFF81492D9F8DC00012840F0E9800220C9F82E
:20151000DC0007F01BFA0290012004F019FE20B101210646C9F8DC10D5E007F00BFA0390E5
:201530006E484FF00008C0F80080012005F078FE012818BFCDF8008004D1404604F030FA1C
:201550000120009066486E4CC0F800801934D4F8FF0F112007F020F800280CBF464601261D
:20157000102007F019F808B146F002060F2007F013F808B146F004060B2007F00DF830B1FA
:20159000584800685849006B0246088890470A2007F002F80028404618BF01204FF0805B9D
:2015B0000BF5DC7528B128685049006B0246088890474F480127076028688069014646F092
:2015D000200088474B48076006F0E0FF00F001010191400815D2484806F051FF8246BAF141
:2015F000040FF8D0BAF1010F06D1DBF8D801406802464148032190474049086820F0030042
:2016100008604046FFF7DAFA2868D4F8FF1F806B8047019801280ED0BAF1010F06D1DBF8D1
:20163000D801406802463448394690473349086840F0030008602A4807602868406901461F
:20165000304688470B2006F0A7FF28B128682649C06A0246088890470A2006F09DFF28B128
:2016700028682249C06A024608889047204807600322C9F8DC201F4BC3F800802868406BF5
:201690000146304688470128F8D1042004F058FD124807601A48D4F8FF1F01688909FCD378
:2016B0000098012802D1384604F07AF906F068FF082004F045FD06460398C9F8DC7007F0FB
:2016D00035F903F0A9FF029807F02CF902E0042600E00126304605B0BDE8F08F0C40094084
:2016F00000022243B80100104E8A00004A8A00002820086080010443004003402422084075
:2017100014100940501B00202DE9F843814606F031FF002100B90121724E30680028FCD03B
:20173000734D01242D1DEF6A346009B106F028FFDFF8B481C7F3072008F1BC01086006F0A5
:2017500019FF002100B9214630680028FCD02F68346009B106F014FFC7F38440C8F8C000A8
:2017700006F008FF0146002001B92046014630680028FCD0ED69346009B106F001FFC5F3B0
:201790008120C8F8D000B9F5C061C8F8B81000F0A48098F8D80068B9C8F8D410D8F8C000E0
:2017B000C8F8C800D8F8BC70C8F8C470D8F8D060C8F8CC60D8F8D410D8F8BC60002954BFD9
:2017D00002206FF00100454605F1C8031A6801EB41014018411000EB917002EBA0021A60DD
:2017F000D5F8C810C5F8C46000291CDD1E293DDDD5F8CC0030B93429B4BF15391E21C5F834
:20181000C81025E02A29BABFD5F8C8000B381E20C5F8C800D5F8C4003F28B4BF401C3F204E
:20183000C5F8C4001FE0D5F8CC00032812D011F10B0FC6BFD5F8C8000B30201CC5F8C80040
:20185000D5F8C4000028CCBF401E0020C5F8C400032009E011F1150FC6BFD5F8C8001530A4
:20187000201CC5F8C8000020C5F8CC004FF08058D8F8A401B5F8C4101C4E40684FF47F42CB
:2018900008230746009130463021B847D8F8A401406804214FF40032112307460094304627
:2018B000B847D8F8A401B5F8C81040684FF4F80212230446009130460421A047D8F8A40133
:2018D000B5F8CC1040684FF440620A230446009120213046A047BDE8F883002088F8D800A4
:2018F000BDE8F88300800C40501B002000A00C4000A00C402DE9F0470446FF252570657064
:20191000A570E57054A02571ADF1480D657106F07CFA06F063FD07AE304606F007FD4FF0D4
:201930000008404631468DF8248005F01FFA0690002800F08C808DF80080CDF82CD0532662
:201950008DF83C6001270C9702A80D900E9706980BA906F073FE0028F9D09DF8081041A067
:2019700006F053FA06F03AFD8DF83C60CDF82CD00E974FF00209CDF830902C208DF80000C0
:201990000A238DF8013002AA0D9206980BA906F055FE0028F9D09DF8081035A006F035FAD6
:2019B00006F01CFD8DF83C60CDF82CD0CDF830904FF0060ACDF838A031208DF800008B2331
:2019D0008DF8013002AA0D9206980BA906F036FE0028F9D09DF8081029A006F016FA06F017
:2019F000FDFC8DF83C60CDF82CD0CDF830900E972D208DF8000008238DF8013002AA0D92D4
:201A100006980BA906F01AFE0028F9D09DF8081020A006F0FAF906F0E1FC32208DF8000065
:201A30008DF83C60CDF82CD00C970D940698CDF838A00BA906F002FE30B925706570A57023
:201A5000E570257184F80580069806F0F2FD06F0C7FD12B0BDE8F0874144584C205265610E
:201A700064200A00494420307825782E0A00C0464257205241544520307825782E0A00C056
:201A90004461746120666F726D617420307825782E0A00C0506F7765725F636F6E74726FB5
:201AB0006C20307825782E0A0000FEE72DE9F04FADF1840D00F092FC04F0D6FA0026012813
:201AD00004D106F057FA022808BF012658490868C0F38150012806D151F80C0C0127010E95
:201AF00007FA01F006435348007805F05BFE524D2C46286038B1FF2204F1400107467F1E77
:201B100001F8012BFBD14D4909684FF0000901F0FF02FE2A1BD0DFF824C101F0FF074A462D
:201B30000123FF2F0CD0B8427FD903FA07F73E427BD101F0FF0147EA0909611881F84020C8
:201B50005CF8041F521C01F0FF07FE2FE9D1092001F012FB3948002124220823606001A80F
:201B700006F0DCFE4FF0010804F1240001AA8DF81C80414606F0CEFE236843B3002794359E
:201B90004FF0040BBA4608FA07F0064219D119EA000F04BF07F0FF0141F4C04105D0E019EC
:201BB000264990F8400051F82010254801F054FEF8B24FF0FF3106F069F82368C5F800A05D
:201BD00001E0C5F800B07F1C2D1D9F42DBD30AA800213022082306F099FE0025FF201021E1
:201BF0000AAB1290174A009504F1080006F08AFE16A828220823294606F080FE04F16000A2
:201C100016AA1C9510491D952B4606F073FE0F4951F80D0C20F4F85040F4005041F80D0C74
:201C30004746C1F8FF7F0A4E376021B0BDE8F08FB43F0050892E0020882C0020088D000069
:201C5000007FC767B97C0000216200000D300940080009402DE9F843674C04F1240006F025
:201C700078FD15460E460090FEF704FD05F001078146B6F1FF3F0CD1A06A20B9B4F936005E
:201C9000401C06B202E0A06AB0F91C60002084F8A300304605F01CFB0326002800F09B80F2
:201CB000A16ADFF84081814269D0009FB8422ED03FB100990A68904209D00968002900910D
:201CD000F7D1832E41D04846FEF7D8FC3DE004F1A40005F01BFF00980168AA0802D20A6855
:201CF00002600846002202600091009818B94846FEF7C4FC28E0C17F41F00401C1776846FF
:201D100006F0B0F90146404604F032FFEDE704F1A40005F0FBFEA8083ABF606A00680020CC
:201D300060624846FEF7AAFC0099C87F40F00400C877684606F096F90146404604F018FF4A
:201D5000009808B1A808EFD28326E07988B9207A012843D0244806F0CBFB022104F1C80090
:201D700006F004FA6078012838D0204806F0C0FB34E004F1C800022106F0F8F92EE0A908A3
:201D900003D3616A009100266662C27F0121B9401143C17706F0CEFD0446002F14BF1448C2
:201DB000144805F063FE4846FEF768FCA80801D3009820B9204606F0B9FD83260EE0C17F9C
:201DD00041F00401C177684606F04CF90146404604F0CEFEECE74846FEF750FC3046BDE852
:201DF000F883C0464016002075030000253300000100020401000104101600202DE9FC4166
:201E1000654C5E4D5E4EDFF88081624F94F8E410481E0B2866D8DFE800F0802C43062343B8
:201E3000062343067B69042907D001220A2945F8212C14BF0220032004E02021012045F8BD
:201E5000211C024684F8E200002045F8390C0827C5F8FF7FC5F8F37F45F8392CBDE8FC8190
:201E7000052914BF09200620002584F8E40035607DE094F8E1700120383D002FC5F81B0011
:201E900004BF0620002102D00021F160032084F8E400032045F8010C31603068800866D20B
:201EB00094F8E4103748012503290FD000684068002160220523074600914046B84794F818
:201ED000E400062814BF0A200720CEE7006840680221602205230746009140460021B847A6
:201EF0000420C2E706F002FDBDE8FC812749002627480E60012505600E2001F0D3F80220E4
:201F100004F0ACFF84F8E45084F8E360BDE8FC81002038600C25786027E04FF08056D6F8D6
:201F3000A00100680146202088472C3D0F2045F8010C41F61D53C5F80330D6F8A40140689E
:201F500000214FF4C07202250723844640460095E047D6F8A401C06800214FF4C072072323
:201F700006464046B0470120386084F8E45004F17800FEF78BFBBDE8FC81C04639400C404A
:201F900038600C40A401001000A00C402C500C4004800C4034600C40501B00202DE9F04162
:201FB000ADF1180D04F002FC5EA005F02EFF06F015FA05F0AFFA604C04F1200006F066FA82
:201FD0004FF47A7204235A49A06004F1540004F06FF81F20012104F0E1FC012504270020B1
:201FF000ADF802004FF44871ADF8081008268DF8005080468DF804706A46ADF80660642070
:20201000ADF80A802946ADF80C0040F20530FEF7B7FC40F2063002210DF10202FEF7B0FC24
:202030004FF44270182104F13A02FEF7A9FC40F207300E2104F12C02FEF7A2FC4FF4447052
:20205000294601AAFEF79CFC40F2113002210DF10602FEF795FC40F21230022102AAFEF76F
:202070008FFC40F2133002210DF10A02FEF788FC4FF44570022103AAFEF782FC2D4806F004
:2020900055FA0620A02104F089FC0720A02104F085FC3046A02104F081FC0920A02104F09E
:2020B0007DFC8DF8145003268DF817504046049039468DF8150004AA8DF816604FF4816099
:2020D00004F052FC4FF48060294605AA04F04CFC40F2024029460DF1150204F045FC40F2D2
:2020F000034029460DF1160204F03EFC40F2064029460DF1170204F037FC06F0DDFAFFF7F2
:2021100037F906F08DF803F0A7FE04F0D9FF04F1140006F08FF804F1180005F00DFB06B05A
:20213000BDE8F081496E69742049324300C046C081820000098B0000080200202DE9F84F23
:202150009A4693460E468146FEF794FA514C0090B4F93610B4F934000AAF401A40F6F87165
:202170000140082980F28780B4F93400401C6FF31F30A086B4F9348005F0A8FC054609F111
:20219000700005F0C3FCAE6085F81EB0C5F804A0A5F81C80C5F80C9097E80C0041A003C888
:2021B000002605F110071040194087E8030004F12400EE770768002F50D1294604F0D8FC4D
:2021D000002851D0A9F89480E87F40F08000E87789F89660607A40B1607830B10120A0724D
:2021F00066722779A671781C20710098FEF746FAA06A00284BD1607860BBE079012846D075
:20221000FEF738FA0646207A00BBA86803F070FE224B2149E2681B68086040B93046FEF705
:202230002DFA04F1C800042105F0A0FF2FE00968D26804F1A400891AB1FBF3F1FEF722FA5A
:2022500004F1A400FEF722FA30461EE0144901200870F9E7192006F0B9F818E004F1240089
:20227000294604F085FC48B9B4F9340000F6FF706FF31F30A0866FF0010805E0A9F894804A
:20229000E87F40F08000E8770098FEF7F7F94046BDE8F88F101600207C2E0020148D0000D8
:2022B000882E0020F1EFFF9F200000002DE9F041424C474D8046C8F38140401E02D0401E61
:2022D0002AD025E0284620300168880C20D24FF4804020603A48D0F802204B0AC1F3033710
:2022F00003F0800322F08F02134347EA0302C0F80220D0F801300E1266F30303C0F80130EE
:20231000026801F0E70722F0E70247EA020102E04FF00041204601602A4E06F1080000682D
:20233000C0F3C0070FB94020A0624FF40070206406F024F840F0300084F8C800C8F3815070
:2023500038B3401E03D0401E1ED002211DE0012004F066FF07460420394603F06FF80420FD
:2023700004F05EFF8742FAD1366826F07F4004F05DFD15480068036807214FF06022300E50
:2023900098474FF4806020600321042003F056F806E00420012103F051F80C4804F046FD2F
:2023B000284600680B4947F6180700F03F0084F8CB0F094E0F803068BDE8F08140A00C4042
:2023D0000A600840A83F0050B4010010BD3786006C13005070B00C402C2009402DE9F043AC
:2023F000484C94F8E700ADF12C0D002877D13D4F387B01250021242284F8E7507E6884F89E
:20241000E6000823C4F80C6101A806F06BFA002604F10C00069601ABADF8146032490796CE
:20243000324606F05BFA314904F1300001AB324606F054FA2E4904F1540001AB324606F0E8
:202450004DFAB868014628468847DFF8AC8029487B7B0078D8F80410C1F381571BB1032F31
:2024700003D184F8E150032F1ED0022F1CD0012F2ED14FF08059D9F8A401204C4068032199
:202490004FF040521C230746009131462046B847D9F8A401406831464FF40072092307469F
:2024B00000952046B84713E0022004F0EFFC032F0CBF4FF47A7142F21071114800685434F5
:2024D000B1FBF0F12046FEF7DDF82046FEF7DEF8D8F80000C00802D2304604F0D7FC0BB09A
:2024F000BDE8F083B48C000073350000F142000099440000892E0020B03F005000A00C40BA
:20251000148D0000501B00202DE9F0430646880FADF1140D7FD303F0DBF8434D4FF00008A5
:202530001C35C5F800803D4845F81C0C012005F08DFA3B4805F0DCFF3C48434640F60A02D4
:2025500000F13801438790F84440C0F83C8090F845700A8004F0F00480F8444007F0F00461
:2025700044F00104B76880F8454081467B803C1D00E03C1D276817B138888242F9D121607C
:20259000607A00F0F000607209F1240006F0E1F880680088D21F82421DD0521C82421AD084
:2025B00006F120000788B7B196F82C2096F82D70C6F8248002F0F00286F82C2007F0F002FF
:2025D00042F0010286F82D20C9F83C00487B738400F0F0004873B068694600F0F9FC68463F
:2025F00005F0C4FEB06800F087FC28680028FCD0C5F80080012004F013FE012808D0607AC7
:2026100000F0F00040F001006072064805F070FFB06845F81C0C05B0BDE8F08301010E04B7
:2026300075030000055A000000100440101600202DE9F04F0C464549CA7AADF12C0D8446FF
:202650000592487B09900D7900958A7A488B4B8A0E7B91F805A091F802800492B1F846E089
:2026700008904A7A088B0392CD7807900A7AC88A02920F6A0690CA79888A01928A79E1465F
:20269000A9F54079B9F11D0F10D8DFE809F05B5553514F4D4B494643413F3C3A380F3431A6
:2026B0002E2B2923201E1C0F19181716BCF1280F49DA604603F016FF21E0099EB246D04633
:2026D000CDF814801DE00898079007980690DDF818E005E03831086820608888A08032E0DB
:2026F00070460AE0B1F8440009E0B1F8420004E0B1F8400001E091F83E00034612E0208019
:2027100021E0059804900498039001E03231E2E7039802900298009006E0019A87310DE0BE
:2027300068310BE01846EAE7009D0BE02C31D2E7276008E0583100E048311022204601F05E
:20275000BFFB00E025700BB0BDE8F08FF4120020F8B505F027FC404E3E4F0446A00823D36D
:20277000B96A09B33D4600200B698A69A86204EA0300104340F0020006F1080288610B6982
:2027900010689843106001F1100090E80C0030681A1C9043306005F1300004F0E9F9022190
:2027B00005F1C80005F0E2FCB86AA10815D200F110020CCA002122400B40002B08BF002A03
:2027D0000BD0016985690C40F8622C434FF48041846107F1C80005F0C9FCB86A002837D1EC
:2027F00007F12404204605F0B4FF051C30D0F868E968884226D1A86803F07AFB17490860C8
:20281000E0B906F1080128690A6810430860326805F1100393E80300081C10433060002306
:202830003361A86846F80C0C06F1100000680028FAD0204605F016FCBD62F8BD086802F08A
:2028500075FFF8BD07F1C8004FF4805105F08EFCF8BDC046101600200C1004407C2E0020C1
:202870002DE9F047ADF1180D01F03CFA3A4D4FF0030908274FF6FF78002605F13E0A2C467E
:2028900005F0CCF920BB009601A80DF106016A4604F0BAFBE0B9BDF80400102814D16078AF
:2028B0009DF8061088420FD100980188884509D14088C00B08D3042005F12002014604F006
:2028D0008BF901E003F03AFB009808B105F022FB208A41082DD320F00100637921792082DC
:2028F00053EA010225D073B9207A637A8DF8070005F132018DF808300A680DF109031A6088
:202910008988998001E08DF80790A07A8DF80F00E37A8DF810300DF1070005F0EFFD38B1E1
:20293000636AA77023B11A6812B1196838468847208A810807D320F00200208251463046EE
:2029500002F05AF9208AC1089AD320F00400208203F080FF94E7C046F41200202DE9F0412C
:2029700004466668A7680D46ADF1380DFDF782FE96F8DC10012903D1FDF780FE00205EE02E
:202990004FF0010886F8DC80FDF778FEE968204602F08EFC0028F1D128783070686870609E
:2029B000287A002130220823F06001A805F0AEFF06943A7B099200250095224AB96806F104
:2029D000100001AB05F09EFF01A828220823294605F094FF396907911B49059406F12C002A
:2029F00001AA2B4605F086FF01A824220823294605F094FF06F160008DF81C80414601AA76
:202A100005F088FF307838B906F17C00294601AA05F080FF0D4870603572C6F8BC50C6F83C
:202A3000C050786800F0A8FB204603F0F9FA084A06F1C8000421234604F0A8FD20460EB05B
:202A5000BDE8F081212E00005158000091860000CD8300002DE9F04390460A68D8F8004050
:202A70001678814600271D46ADF1140D3846531C242E0B6053D112F8016F5B1C4C2E0B6004
:202A90000ED1AA68E41C24F00304241D54F8040C494602F0A7FE2968EF600127091A2960A3
:202AB000462E1AD1E41C24F00304241D54F8040CE41C029024F00304241D54F8040C00277E
:202AD00049460390AA68ADF8047001A801F046FA2968EF600127091A2960532E1FD1E41C9A
:202AF00024F00304241D54F8040CE861C8F80040288B0090A968EA69D9F800004346FDF7D0
:202B100095FAD9F80040002714B10119C9F80010D8F800402968EF60091A01272960662ED6
:202B30000AD12B8B23B9E41D24F00704083403E0E41C24F00304241D1FB9E9690E700127AD
:202B5000EF60C8F8004005B0BDE8F0832DE9F0430646ADF11C0D05F0BDFE04F04FF94FF0C2
:202B700000090546CDF8009005F040FD30F0010002D00098A84202D16FF0040059E07068AE
:202B90004C4658B1B0F1FF3F05D001A904F01EF930B107464CE04FF0FF3000E02046019082
:202BB00005F094FE0199012701EB000800E001936868019905F086FE00282ED003A803F0AD
:202BD00021FFD8B99DF8100002A903F001FF88B9B368BDF808009DF81210059A984748B1AA
:202BF0009DF81270B773BDF80800B081059B33614F4612E00599684604F0A4FA0198641CE4
:202C1000B0F1FF3FD4D00028D2D005F05FFEB8EB000302D001989842C9D2009905F10800E8
:202C300004F03CFC24B1686805F048FE641EFAD1384607B0BDE8F0837CB50546084602F022
:202C500035FA354E02461821304604F0D3FA05F00FF8324909684C6840F2FF32002380B2A6
:202C70002C2100903046A04705F090FB1C210246304604F0BFFA04F0EDFF0246142130460F
:202C900004F0B8FA05F0B2F902461021304604F0B1FA284602F0FEF802460C21304604F01B
:202CB000A9FA284605F08AF91D4C400040F020002070284605F08EF940F0100020702846CA
:202CD00004F0E4FE02462821304604F093FA284605F098F9400040F06000E070284605F00F
:202CF0009DF9C00040F0800004F8080C284605F0A1F9800040F47C40A4F89300284604F0B0
:202D1000A5FA02460821304604F074FA4FF48000A4F2091108607CBD00A00C40A401001006
:202D300049A10C40F0B5ADF1340DFFF757FB304908682822082340F00200086001A80021BF
:202D500005F0DCFD2B4E2C490524002301AA079406F1C80005F0CEFD00213022082301A84F
:202D700005F0D4FD0025FF271921244AADF81C5001AB099706F14C00009505F0C3FD282256
:202D9000082301A8294605F0B9FD1D4901AA2B4606F1FC00079405F0ADFD3022082301A860
:202DB000294605F0B3FD01241A21164AADF81C4001AB099706F16800009505F0A3FD1249FE
:202DD0002A4606F1A400134605F088FD0F4805F08FFBB47186F8A3507571F57135727572BF
:202DF000B5724FF6FF7075610DB0A6F8A000F0BD00200940101600204D8100002178000054
:202E1000ED330000595A00003D7600002533000098B53749826844680968106849688847F8
:202E3000344B01229A6140B1217AFF2905D0FF214009217257D204224DE0207A002852D000
:202E5000401E19D0401E02D0FD384CD048E05968D4F8B4000170D4F8B800D4F8B410401E4E
:202E7000491CC4F8B800D4F8B870C4F8B410F7B1012F88BF09222EE0D4F8B000401EC4F807
:202E9000B000D4F8B070A7B9D4F8B8707FB10220D4F8A8102072097C012F4FEA410141F069
:202EB000010143F8041C94BF03220B2214E004220FE0D4F8AC0000785860D4F8AC00022FA6
:202ED00000F10100C4F8AC0005D2D4F8B87017B905220020207202201A6005F0F6FB98BD3D
:202EF000FF20207298BD04F12C0005F0E3FC98BDAC01001004280040E0B501880025A1F66F
:202F1000020159B143F20402891A04D0491E57D190F8246000E00226C76901E0C67B47693D
:202F3000002F4DD03F1F052044F2380357F8041F0A04120C934203D0401EF7D13F1D01E098
:202F5000C1F30345002D3BD01F4B3046401F18D01C4A401E10D0001F0CD0801E0DD0C01E0E
:202F700006D00F3819BF1A1C6032184A443204E0121D02E0121F00E0083A1068C0F3834076
:202F900003E01A461068C0F303200F2806D0A84216D921F4702141EA004110E0761F0AD039
:202FB000761F08D0761F06D00F3E1CBF21F4702141F4802103D121F4002141F4E0213960AC
:202FD000E0BDC0460011005020130050C410005080B50288A2F602073FB143F20502BF1AD1
:202FF00014BF002090F8240000E0C07B2C4AD2F88832401F0B6048D0401E3CD0001F30D0A2
:20301000801E24D0C01E18D00F380CD0D2F890024860D2F894028860D2F8BC0220F0784089
:2030300040F080503AE050694860D06A8860506C20F0784040F0704030E010694860906A54
:203050008860106C20F0784040F0F04026E0D0684860506A8860D06B20F0784040F0C04019
:203070001CE090684860106A8860906B20F0784040F0A04012E050684860D0698860506B41
:2030900020F0784040F0405008E01068486090698860106B20F0784040F02050C86080BD67
:2030B000C41000502DE9F8430446FDF7E3FA81462D48021992F8ED10491ECFB2002F82F801
:2030D000ED704BD12B4D05EB84052E78698836F07F0788461AD1F10911D24FF08054D4F8BE
:2030F000B801806901464046884704F5DC742068406B0146404688470228F8D121E000EB8B
:203110008800D0F80011002088471AE04FF08054D4F8B801006A014640468847D4F8B80132
:20313000806A014640468847D4F8B801006B01464046884701210D4A0D4811600168890834
:20315000FCD306F03F003F2801D0FFF7ABFF687800F03F003F2801D0FFF7A4FF4846FDF721
:203170008DFABDE8F883C046501B00202820086028200840208A00002DE9F0410646FDF796
:2031900079FA2D4D8046A91991F8ED00421C002881F8ED204AD1294C04EB8604277807F089
:2031B0003F003F2801D0FFF7E7FF607800F03F003F2801D0FFF7E0FF668837F07F001AD119
:2031D000F80911D24FF08054D4F8B801406901463046884704F5DC742068406B01463046F5
:2031F00088470128F8D121E005EB8605D5F80011012088471AE04FF08054D4F8B801C069F9
:20321000014630468847D4F8B801406A014630468847D4F8B801C06A0146304688470121FA
:20323000074A0848116001688908FCD34046FDF725FABDE8F081C046501B0020208A0000B9
:203250002820086028200840294A2DE9F04180460125284815600768002FFCD0284C294943
:20327000C020443C206001F1080003689B0806D250F8040C204B000C40F0F00018700020E7
:203290000C3110630E68304600F03CFC40463146FFF7D2FC1C48B038816D40F21E226FF38B
:2032B0001F418A4214D901680068C1F30367C0F3034007B17F1E072805D006280EBF072085
:2032D000801C00F00F00114947EA0010083908703046FEF7EBFF0E4814380068C168022045
:2032F000884740202060054F3D60BDE8F081C0461010094094022243566208409404604264
:2033100044600C40A83F00506C1300500A600840B4010010042998B54DD1274C04F124000C
:2033300005F017FA40B994F8A300400838BFE06804D3D4F8880000E0C068E06041681F4A43
:2033500009781160416812680978914206D0876927B120A20CCA6FF0FF01B847022003F04B
:2033700095FD1120FFF708FF0120E071E068011D007C10B16079012804D00E20FFF7FCFE74
:20339000E168091D08680E49083007680FB947681FB10020C8610B4F0F600B4A40F2FF70F1
:2033B00000271060094C8F6109484C6105F0A0F8192005F07BFA98BD10160020D02108401F
:2033D00000100440510007060000046002000040192500000000000000000002F8B5FDF7A4
:2033F00049F92A4C0746103CD4F89C0010F4602F2BD0D4F89C00400CC5B2680807D2A80852
:2034100003D2E80828BF022502E0012500E000256E1D70B202F042FBD4F89C3005F1110140
:203430000120884023EA00013846C4F89C10FDF725F904EB8500D0F88C704FB1D4F8880001
:2034500013A20CCA3146B84702E03846FDF716F9D4F89C0020B104F1FC00002104F086FE35
:2034700094F8A30080080FD3D4F8987037B1D4F8880009A20CCA6FF00101B84794F8A30083
:2034900000F0FD0084F8A300F8BDC046201600200000000000000008000000000000008077
:2034B0002DE9F8430D46064668687468D6F80890002710B9E868002850D02078012814D1CC
:2034D000FDF7D8F8D4F8BC1049B1D4F8C0108D61C4F8C050FDF7D2F80120BDE8F883C4F875
:2034F000BC50C4F8C050FDF7C9F8022003F0CEFC04F160084FF0FF31404605F0E3F9D9F85C
:20351000080005F0CFF93046294600F031FF0546D9F8080005F0CAF9207888B9B5F1FF3F38
:2035300008D004F17C004FF0FF3105F0CBF9207A48B110E003202072022003F08FFC0AE048
:20355000B5F1FF3F01D0012705E00320207204F12C0005F0AFF9404605F0B0F93846BDE8DF
:20357000F88370472DE9F0412D4C0546A41C20781F4690460E46ADF1380D012803D0FFF742
:20359000D1FB012020705EB1B8F1000F6E6007D0C5F80880FDF76EF8617819B1FDF76EF896
:2035B000002038E0491CC9B26170FDF767F801241FB9684604F052FE6F4638682860786813
:2035D000E860387A2874F8686861386900B1A8610021782205F1200001F0ECF905A800214C
:2035F0002422082305F09AF98DF82C4005F13800002105AA05F08EF905A800212422082318
:2036100005F070F905490B9505F17000002205AB05F064F928460EB0BDE8F081E786000015
:2036300010160020F8B504F0A5FF04F0AFFF044604F00C000C2845D0E0081ED203F05EFE93
:20365000234E376805460120014604F09DFA31686943884211D21F4C8220B0FBF7F0291A38
:203670002046FDF70FF82046FDF710F80120FDF737FF204604F04AFA25E0200922D216480E
:20369000610939BF016821F00101016841F0010102460160D2F898004FF0805440F003004F
:2036B000C2F89800D4F8B8018069014620208847D4F8B801094C806B21688047012020602E
:2036D000206800E030BF04F05BFF01F023FDF8BD148D00005C1B00208C2108402C200940AD
:2036F0002DE9FC4798460AAF3B8881460D460846164601A904F057FA012808BF012049D02A
:20371000BDF80400244F42F6021100244FF0FF0A401A2CD048F2FF31401A30D0401E13D05B
:20373000401E22D1FBB9B8F1010F1AD130781E2808DBE9680870E9687E1C8E421FD14FF04C
:20375000020A1FE080241AE06BB9B8F1010F08D13078E9680870E868874210D14FF0010A45
:2037700010E00D240BE00B2409E00A2407E00093484629463246434602F02CFC0446BAF160
:20379000FF0F06D03F1D386818B1016809B1504688472046BDE8FC87841D00202DE9FC4740
:2037B00098460AAF3B8881460D460846164601A904F0F9F9012808BF012049D0BDF8040068
:2037D000244F42F6021100244FF0FF0A401A2CD049F2FF51401A30D0401E13D0401E22D1E2
:2037F000FBB9B8F1010F1AD130781E2808DBE9680870E9687E1C8E421FD14FF0020A1FE0D2
:2038100080241AE06BB9B8F1010F08D13078E9680870E868874210D14FF0010A10E00D246E
:203830000BE00B2409E00A2407E00093484629463246434602F0CEFB0446BAF1FF0F06D03B
:203850003F1D386818B1016809B1504688472046BDE8FC876C1E0020F8B50D46EEB2290802
:2038700024BF26494D40264BB400195985EA01020240C2F3006C234A00EA05078143FF3295
:203890003A4000F4E0270A43B7F5E02F01D1510E15D300F4E0215CEA010710D002F4E02762
:2038B000B7F5A02707D0B7F5803704BF22F4003242F4A02203E022F4803242F4C0221A511A
:2038D000114CC10D04D3A4F18001C5F380528A55000E11D3FCF7CEFE290E03D20121002256
:2038F000B14002E00121B1400A46503423688B431A432260FCF7C2FEF8BDC046006000A058
:2039100000100840007F077F802002402DE9F0410E46294990461C4606AF8C467268087832
:20393000BB8851783F881278002502EB012242F62321521A29D0521E052A18D9921F0CD0E7
:20395000263A34D1072F30D8C7F10700984298BF83B2674407F1080121E0B84225DBC01B0D
:203970009842D8BF83B22380DCF804000BE0F06804F092FC80B2B84217DBC01B9842D8BFE7
:2039900083B22380F06839180AE0082F0DD8C7F10800984298BF83B207EB0C010F31238088
:2039B00040461A4600F08CFA03E0072501E025800A252846BDE8F0814C180020F8B50D46CF
:2039D000254C26490728164644D8DFE800F03C2E2A26221E1904284603F0F8FF071C39D0FE
:2039F000616804F11700884202D0606804F056FA384631462A4600F063FA67602570F8BD77
:203A1000142D27DC0C46153412E0142D22DC0C460EE0142D1EDC64340AE0142D1ADC4F34CF
:203A300006E0142D16DC3A3402E0142D12DC253420460021152200F0BDFF204631462A46CE
:203A500000F03EFAF8BD082D04D130680F34206077686760F8BDC0464C180020C518002032
:203A7000264838B550380468B4F1FF3F08BF002404F0B5FB224817490025103805600120B8
:203A900008601549086002F0FDF81448006820B1134800682046FFF7D7FB12481249056061
:203AB000124C0A686FF35B4244EA0200086010490868C0F30130012806D10A680D481040CB
:203AD00040F400320A6008600B4908680028FCD138BDC0465C600C40082204438001284385
:203AF000000120438C210840482003400000390104000940FFFFFCFC0C0068426C130050B0
:203B10009404604270B5224C224D0646B00E0FD2700E0DD3802020744FF6D801A4F85110C1
:203B3000207001F0DBF8D0352868C0F3042002E02868C0F3046004F09BFC00EB2670401CC4
:203B5000162805DA10F10A0FB8BF6FF0090000E01520114D00F01F0040F4F850A4F859004C
:203B70002868800803D20D490020086001E046F040660B48F10EB50E81F00101983801F064
:203B90000101016085F0010101F00101816070BD15620840B81200500000094094042A4313
:203BB00098002043F0B520480127F84201D002F0EBF9204D204F214EBD4206D203CD047876
:203BD000A4003459401CA047F6E71D48002800D08047164D164FBD4202D210CDA047FAE720
:203BF000F0BD03251BE0416808300A1C2A400BD11A1C2A40AB4305D0046804300C600431F4
:203C1000043BF9D1131C05D0047801300C700131013BF9D1021C2A4001D0A8430430036843
:203C3000002BE0D17047C046FFFFFFFF0000000000000000F0950000509600009895000047
:203C500055C501102DE9FC470AAF3C88814698468A460846134601A903F0A5FF012808BF06
:203C700001203BD0BDF804001D4F42F602110025FF26401A21D04AF2C031401A0BD0401E43
:203C900019D1B4B9B8F1010F11D11878DAF80C10022608701BE064B9B8F1080F07D11968D3
:203CB00007F10E005C680160012644600FE00D250BE00B2509E00A2507E01A460094484641
:203CD0005146434602F086F90546FF2E05D0386818B1016809B1304688472846BDE8FC878F
:203CF000941C00202DE9F84303F000FC244C0025A5704FF6FF70A08202F0C8FD1F4E0123DC
:203D10002A462070314604F1A80002F0D1F902232A4604F1CC00314602F0CAF904232A46AA
:203D300004F1F000314602F0C3F9042704F14808102240462946E77000F03CFE04F15809FB
:203D500010224846294600F035FE04F1200635602572072065721021A0724246E572022078
:203D700002F020FF032010214A4602F01BFF38463246014602F016FFBDE8F883D580000079
:203D9000F41200202DE9F0470F46064604F0D6FDEFF311898246202080F31188D6F8088052
:203DB000474533D01D481E4B0468002F05D49C690125BD4004EBC70401E0E4180025307D91
:203DD00001281AD1304604F069FD306C04F062FD18B1F1685868884358601869864204D07E
:203DF0002046314604F052FD04E020685C61314604F0BDFC586828435860B760F56034645F
:203E1000002F44BF002058610120188189F31188504604F087FD4046BDE8F087EC14000008
:203E30000001002090B50746401EADF1140D18D0214C401E0BD0001F39D1204604F0B6FAE1
:203E500010B9204604F087FC01F098F92FE0204604F0ACFA10B9204604F07DFC04F01AF978
:203E700025E04FF441706946FEF7E2FB9DF800009DF804308DF808009DF805108DF80E3060
:203E90009DF801408DF80F109DF803008DF809409DF802308DF80D0002AA8DF80A3000204E
:203EB0008DF80C0008218DF80B00FFF787FD034805B0077090BDC0465C02002008020020BC
:203ED000002A4AD05FEA000C8B071CD1830722D1102A08D370B4103A78C978C0103AFBD22A
:203EF00070BC103238D0042A2CD3082A05D30C2A24BF08C908C008C908C008C908C0920788
:203F10002AD0920F22E00B780370491C401C521E22D08B07F7D1C30714D18307D8D0121F6F
:203F300012D308C903801B0C4380001D121FF8D20AE008C903701B0A43701B0A83701B0AF3
:203F5000C370001D121FF4D2121D05D00B780370491C401C521EF9D1604670472DE9F84367
:203F7000002A894607464CBF47F6FF75151C002F08BF002032D03888002808BF002403D040
:203F90002A4600F01BF90446281B26DD388828B1291B484612A202F0C3F90419B868E0B172
:203FB000D7F804802E1BB8F1000F0DD0404604F073F9401DB04207DC291B484609A24346A2
:203FD00002F0AEF904192E1B122E06DBBB68291B484606A202F0A4F904192046BDE8F883E2
:203FF0003A2000C0222573222C2000C06C696E652025643A200070472DE9F843224D8846BF
:2040100006464FF0FF3105F12400814604F05AFC00200CE0FF2909D02A688A4204D905EB72
:204030008101D1F894700FB1002627E0401CB8F1000F03D018F82010FE29EBD10024346072
:2040500074600127B46011E0FF280ED005EB80000B787268C0F8946007FA03F010437060BA
:204070000A680A49304603F01DF9641CB8F1000F04D008EB84010878FE28E5D1484604F08A
:204090001DFC3046BDE8F883882C0020007FC7672DE9F8432020EFF3118780F31188214C5C
:2040B000A068012104F0EEFB4FF001094FF0000865692168A4F81C906A1A2168A4F81E8073
:2040D000461B401A904227D387F3118840464519361A4846294604F0D1FBB042F7D9202142
:2040F000EFF3118781F31188E18B012903D14046294604F0C3FBB0F1FF3F06D0A169801BBE
:20411000814238BF081C411901E0A069291804F0B1FBA4F820902560A4F81C8087F3118870
:20413000BDE8F883780100202DE9FE4F8046B8F1000F01920C9802919B46009005D0081CA1
:2041500003D0101C01D0009810B90220BDE8FE8F1948017800252C4629E0A00038F800A0E0
:204170004FF6FF7708EB000657451CD0B778D7B10198029A594604F0ADF85FEA000912D09B
:20419000780806D3009B504601214A4601F02AF80543B078800806D33088009B02214A46E9
:2041B00001F020F8054304480178641CE4B2A142D3DC2846BDE8FE8FF41200209EB51346BF
:2041D0000C461F4A1D4912880988824206DB13A219460346204602F0A3F89EBD194A178831
:2041F000814207DB03F0A2FC42681946204602F097F89EBD002F08BF0BA2E9D00094002B13
:2042100048BF47F6FF73104F002101933C6802910E496A46A04702989EBDC0467B6D6F64E9
:20423000756C652325647D007B6D6F64756C652D726F70653A25787D00C046C0B28C0000C3
:20425000348D00008E140000308D00008D6F00002DE9F04107467D68D5F8BC00C8B3FCF7C2
:2042700009FA1D4E00248046F46004203060022004F02BFA6868D5F8A8102246034638460F
:204290009847022002F0EAFD0CE08069C5F8BC006868D5F8BC10224603463846984702204D
:2042B00002F0DCFDD5F8BC00D5F8C0108142ECD12C722046C5F8A800C5F8BC00C5F8C0001E
:2042D000064B346038461C6001F0AAFE4046FCF7D5F9BDE8F081C04604280040100405422C
:2042F0002DE99843FCF7C6F91F4CDFF87880814604F1E000007850B94446A06801460220B9
:2043100088470746102001F01BFF2FB320E001F001F8002820460FD1144909683222B2FB2D
:20433000F1F101B9012100F130042046FCF7AAF92046FCF7ABF90FE044460022A16880F875
:20435000E020022088470746102001F0F9FE1FB1A0680146032088474846FCF78FF9BDE838
:204370009883C046B48C0000501B0020148D000080B54268C2F8A8100868C2F8AC004868C9
:20439000C2F8B000D2F8B0708868C2F8B400C8681949C2F8B80097B9D2F8A800007C4000D9
:2043B00040F0010041F8040C022010720B68DB0917D2D2F8B820022A17D30B2216E0D2F8EA
:2043D000A800007C0123400041F8040CD2F8AC001372431CC2F8AC30007848600868C009B3
:2043F00002D34FF0FF3080BD022003220A6004F06CF9002080BDC0460428004070B51F4CC4
:20441000A568064603F0AAFD4FF47A71401B4843050C03F093F82169401A48BF404240F653
:20443000B831AD19A94211D306280FDAA268E1688A420BD8206848B1891A114A51438A0C2C
:2044500002EB1141884288BF011C08E00D49486840080ED208687D2100F0FF004143C82957
:2044700005D3B1F57A6F88BF4FF47A6103E0C82101E04FF4FA61084670BDC046602E0020E6
:2044900040420F00AC3F00507CB5042002F0C8FE022818D0032816D01A480068C0F38150C2
:2044B000032814BF41F288324FF47A721748184C016854342046B2FBF1F1FCF7E3F82046F5
:2044D000FCF7E4F87CBD4FF08056D6F8A4010E4D406803214FF040521C2304460091002109
:2044F0002846A047D6F8A40101214FF40072092340680091044600212846A047022002F0D4
:20451000ADFC7CBDB43F005000A00C40148D0000501B0020F8B51F4CA0F5C060D4F8B810ED
:20453000C4F8D4000029B8BF49420028B8BF404281422BDA4FF08057D7F8A401B4F8BC10C5
:20455000154D40684FF47F4208230646009128463021B047D7F8A401B4F8C01040684FF4A4
:20457000F80212230646009104212846B047D7F8A401B4F8D01040684FF440620A2306468F
:20459000009120212846B047012000E0002084F8D800F8BD501B002000A00C40F8B5001D69
:2045B00084B214F0030002D0241A241DA4B203F0EBFB01461948102C47680160C8BF8768C4
:2045D000388800221646C30BDD0319D126B984420ADD3A46012617E01388C3189BB29C422A
:2045F000138011DC174618469FB1001B80B20428B4BF3C88385344F400443C803F1D08E069
:2046100080F40040002680B2C71938880028DAD10027084603F0CDFD3846F8BD301A00203C
:20463000B0B50446A768ADF1280D27BB0C20FFF7B5FF071C16D0684600212422082304F0E4
:2046500051F9002306976A466168ADF810301448059304F00BF9386038B903F09FFD384660
:2046700002F044FD6FF0030018E0E06878602069B860A7600AE003F087FB0546386803F098
:2046900045FA2069B860284603F093FD38686168FBF7F8FF3868FBF7F9FF00200AB0B0BD16
:2046B00049850000FEB5FDF779FC1E4C002504F1540603F0C1FA38BB009501A80DF106013E
:2046D0006A4602F0B8FCD0B9BDF80400102807D160789DF80610884202D1009803F06EFF0A
:2046F000009860B103F022FC09E0A06803F073FB071C04D003F002FB384603F0DBFBA06868
:2047100004F0C8F80028F0D06088C108D1D320F0040027786080022FCBD1304604F01BF8BB
:20473000C7E7C04608020020B0B514460F46FBF7A1FF85B219480068007808B903F008FBB6
:2047500087B1384602F005FE40B114B14FF0FF3020700820FEF7A6FC002419E0386879688D
:20477000BA6803E04FF480700122014602F0CCF90B49012008600B4908684008FCD30A48C6
:2047900000684168022088470CB10021217004462846FBF773FF2046B0BDC046C48C000053
:2047B000A802504208800240CC01001038B51AA003F02BFB03F012FE03F0F0FDFDF776F900
:2047D000184C201D04F11001FFF716FC05210023154A206004F11C0002F0D8FE4FF0805505
:2047F000D5F8D801114C036801210A4620469847D5F8D801426801212046904702F03AFEAB
:2048100000F096F801F0D0FD01F020FF01F04CFE04F028F8002038BD5374617274696E678C
:2048300000C046C0202100204578000000400340F8B50E46044604F07DF80546304602F09A
:2048500047FD071C03D1284604F070F826E0F87F10F0070F1BD113487968884202D079680B
:204870002166786010A090E8060004F15807284687E8060004F05AF804F138004FF0FF3182
:2048900004F020F804F1680696E80300F8BD284604F04CF8F87F10F0070FFBD10220002121
:2048B000F8BDC046355D000002000000000000702DE9FE431D4CA01C1B4D007828B928685C
:2048D0006421B1FBF0F003F0C9FF02F0FBFD04F110004FF0FF31FFF755FA2D6840F2131867
:2048F00000274FF47A70B8FBF5F6B0FBF5F913E06846FCF7FFFF384606216A4600F0A2FBA9
:204910000028A08803D0801B03F0A8FFA088B8FBF5F1401A03F0A2FF60788DF8007001288A
:20493000E6D04846F6E7C046148D0000D00600202DE9F043ADF13C0D04F000F81A4C184DC2
:20495000002680461C3C684600213C22082303F081FF54F8042F6868AF6806902B6808970A
:20497000694605920F480493002203F06FFF071C10D003F009FA8146384601F021FA48B12D
:20499000484603F016FC2D1D761CDCD0404603F0C9FF01E001F0A4FC0FB0BDE8F083C0465C
:2049B000548900006D8300003C1A0020002213460A46194671B510F0030F0BD0002A82BFFC
:2049D00000F8011BB2F1010210F0030FF6D1002A08BF71BD11F0FF0141EA0121042A18D3AE
:2049F00041EA0141082A0FD30E46102A08D30C460D46B2F10F0312F00F0272C0103BFCD8FF
:204A100012F0080F18BF42C012F0040F18BF40F8041B12F0020F18BF20F8021B12F0010F20
:204A300018BF017071BDFEE71CB51B4C6178401E12D0401E2FD10220694602F047FE9DF8BF
:204A5000001040F21313480000EBC1008342C8BF4FF48A70A0801CBDFF2917D00120694689
:204A700002F034FE9DF8000038B900200622014603F034FB4FF0FF3100E0012104F1100055
:204A9000FFF780F99DF8000060701CBD0120FF21024603F023FB1CBDD006002038B50546B8
:204AB00001201A4C68712879B0B903F06DF92178002904BF6FF00704051C15D0491EC9B24C
:204AD000217039B903F075FB606802F06FFA0020687118E0054613E003F056F90546207869
:204AF000FF2805D16FF00604284603F062FB0BE0401CC0B20128207002D1606802F06DFA1C
:204B1000284603F056FB0024204638BD1C22002070B50646B079F5680F28A5F108052CDA1F
:204B300030790F2829DA03F02FF9154CB27991000C3401EBC20161184968E1B103F039FB78
:204B500030792870B0796870307AA870B179880000EBC1002018F1684068083002F0F2FA94
:204B7000B179880000EBC10024186068406803F0A5FE002070BD03F01CFB6FF0020070BDA0
:204B9000901A002038B519491A4C00204822C1F8F30F94F8E200C1F8FF2F20B3012817D009
:204BB000022807D003281ED151F8310CFFF7B2FC0B2016E051F8315C2846FCF7A5FD40F274
:204BD000FF50A84202D8801CA842F1D2082008E051F8310C00F0C2FC054800780028E7D081
:204BF000052084F8E400FDF709F938BD39400C40C28C0000501B00202DE9FF410E460546A2
:204C1000194C7188E08A81420CDCB188814209DBF088218B884205D13089618B884208BF37
:204C300018271DD0052001F05DFC7788B388ADF80270F288ADF804303189ADF806208046DA
:204C5000ADF80810A08AADF80000684603F062FC071C05D1A57304F1F000414601F0DEFD70
:204C700038460090BDE8FF81F41200201A4898B5D0F8781203680F0F03F0FF03802B28BFBA
:204C9000002301F0F1F94FF0FF3478B1401E07D0401E012802D9801E19D01AE0BFB118E0EB
:204CB000381C12D0801E14D1143311E03846401E0BD0801E07D0001F03D0401E09D1163354
:204CD00006E0152405E0142403E00A2401E00A335CB2204698BDC046A0100050174870B506
:204CF0000068C0F3046003F0C3FB154B0246187800F01F0003F0BCFB82421ED0114E124C14
:204D1000002101253160111A022905DC11F1020FB8BF6FF0010100E002210818216800F0ED
:204D30001F0141F4F851A3F8661082422560EAD12068256020683560206870BD88130050E6
:204D500006620840980020432C2009402DE9F8430024002B16460F468046254606D5002F77
:204D7000C3F1000302D57F42761E2D2599463846494601F079FB0CA0405CB7FBF9F7002F84
:204D900004F1010408F8010DF1D1A64205DD3021301B401E08F8011DFBD10DB108F8015D6F
:204DB0004046BDE8F883C04630313233343536373839616263646566000070471CB5194CE8
:204DD000401E02D0401E21D01CBD6078FF2817D00120694602F0AAFD9DF8000038B9002076
:204DF0000422014603F086F94FF0FF3100E0012104F11000FEF7C6FF9DF8000060701CBD56
:204E10000120FF21024603F075F91CBD0220694602F08CFD9DF80010241D480000EBC10099
:204E300020801CBD300B0020F8B5174A174B184C121D22F003019C4621605E1A2068256885
:204E500060606768A660002001E025F8020BAB42FBD84FF6FC75B3102A4001EB830323F852
:204E7000040CACEB0202E82315403B80EC3DA1F8E850E83144F8081CFFF790FB44F8040C1C
:204E9000606844F8080CF8BD8A2E0020483F00203C1A002038B504461848174DC0300268EB
:204EB0006B68C2F30351C2F303405B0813D22B681D0511EB257103D41029A8BF0F2100E0F8
:204ED00000211B0410EB237303D4102BA8BF0F2300E00023184640EA011002F47F4102F002
:204EF000FF03222C41EA004143EA010024BF02F08042104338BDC046AC3F0050B81200507E
:204F100030B5401E4FF00004ADF12C0D0AD0401E04D0401E20D1FCF771FF1DE000F0E8FC95
:204F3000044619E001A821462422082303F0DAFC06940D4DADF8144009490794012201AB2B
:204F500005F1780003F0CAFC064A23462C2105F19C00009303F0D6FC20460BB030BDC04616
:204F7000AD540000954B0000501B002038B50546880F26D301F02EFB124803F0B9FA154876
:204F9000801C0078012803D005F1380003F096FC0D4800240460022001F060FF1120FEF7C9
:204FB00081F8287C10B90E20FEF77CF80748084A04721178447221B11470C830042103F0A8
:204FD000D5F838BD253300000000046010160020882E0020101600202DE9F041054615F842
:204FF000017B90460E461CE0B8F1000F05F101050BD0FF2C09D8022015F8011B401E41EA90
:205010000424F9D101E0042C02D315F8011B00E0394630462246FFF7CDFCA61901E006F8E5
:20503000010B15F8010B8742F9D115F8014B002CE9D115F8010B2C7800022418D4D1BDE824
:20505000F081704708B5174B8C4601461046002281B1491E09D0491E21D1BCF1010F0CD103
:205070001946491C007808701AE0BCF1010F04D11946F7E7BCF1060F01D0182210E01A4686
:20509000036802F10C010B60808888800648009090680B231432FFF747F8024600E002224F
:2050B000104608BD841D0020855600000146184880B5983000688A0CC0F38367C0F38F2088
:2050D00022D241F3072100290BD54A420021400805D17F0806BF0127381C4FF6FF70521EB0
:2050F000F5D1002910DD4FF6FF72400040F00100824207D2780040F001070F2F92BF0120A0
:205110000F27101C491EF0D140EA074080BDC046B8120050164880B507683FB315498B68E2
:2051300003EA5300C00E21D2134A106880081DD2486880081AD21068096810F0050F4FEAB8
:20515000114101F0F00101F5E0710AD1B9420DD2190F38BF40F00100D90E38BF40F00400AD
:2051700003E0B94202D920F00500106080BDC04628500940AC3F00500000094000B540F272
:205190001630ADF1140D6946FDF752FA40F213300DF10201FDF74CFA4FF4467001A9FDF7C4
:2051B00047FA9DF800008DF80600BDF8000000128DF807009DF802008DF80800BDF8020050
:2051D00000128DF809009DF804008DF80A00BDF8040000128DF80B000DF1060002F022F98B
:2051F00005B000BDF0B50E461C4615460746ADF11C0D03A902F0BAFB0246059212B300204C
:205210000090BDF80C000DF1120329460190FF2002903846A047041C0FD16889ADF810005E
:20523000700804D3384604A902F014FE03E0384604A903F021FA041C05D004A81B2102F0F5
:20525000D1FC00E01524204607B0F0BD70B544688668D4F8A40002F088FC13480025C56044
:205270000560124805607068FDF71CFF04F1100003F0E8FA04F12C0003F0E0FA04F16000F6
:2052900003F0D8FA207818B904F17C0003F0D2FA04F1C80002F00AFCFBF7ECF984F8DC506C
:2052B000FBF7ECF970BDC04604280040100405427FB5446819B98068067D457D01E00E78C7
:2052D0004D78FF2E1FD0FF2D1DD0114941EA06000090FE220292294304F1980001916946BB
:2052F000FEF78AFEC4F8A400D4F8A40058B131460D2201F0C1FFD4F8A40029460E2201F0F1
:20531000BBFF002001E04FF0FF3000907FBDC0460020008438B5012001F082FF012820D045
:20533000114DD5F82401C4681048342101220023A047002808BF002014D0286802F03AF95F
:2053500002F00CFE0B4A0A4D93681168D060C01AA1EB910105FB00F3180C884228BF011C14
:205370001160012038BDC0468000001000A00C4040420F00602E00202DE9F8438146EFF3DB
:205390001188202080F311880125114E114CF561114F6560F86A016A14208847D9F810000A
:2053B000810C14BF000C0420A06138680268232100209047C6F88052206820F4C02040F4C7
:2053D00080302060356088F31188BDE8F883C046000024430020094084010010D0B504468A
:2053F00003F078FA00F0ECFC071C08BF6FF002041FD002F0C9FC0146A2880F4800235430FC
:2054100030F80C6F5EB902804760A26882602373786820610024084602F0CBFE09E09642C8
:2054300008BF6FF00204F6D05B1C0F2BE8D300F057FF2046D0BDC0463C1A00202DE9FC41F6
:20545000144C154F06468846700809D320684568002101220B461FFA88F000903846A847B2
:20547000B00809D3206845680021022201231FFA88F000903846A847F00809D320681FFAE7
:2054900088F600210C220223446800963846A047BDE8FC81A401001000A00C401648144AE4
:2054B000144908B5E4300078801E0A2807D8DFE800F01814100614100614100609C003F07E
:2054D00015FA11E010688008FCD250688008FCD20AE008688008FCD306E008688008FCD283
:2054F00002E010688008FCD3FCF788FC08BDC04634600C4038600C40501B002010B5FBF7A3
:20551000B9F8114C611C097829B10E490C68FBF7B5F8204610BDFBF7B1F802F095FE0DA229
:205530000CCA02F0FFFDA26C002314001B1807A044EB010490E80600C91842EB040210465C
:20555000001C10BD0430044010160020000000127A00000000093D0000000000134910B5A1
:205570000A684BF2F5214843040AC2F38140012806D101F0E3FF01F00FF8604304EB905406
:205590000C4901F1E500007830B90948006820F07F402418640802E0002081F8E500064890
:2055B0000460210C41600123836010BDB43F005010200940501B00203C600C40B0B50446F7
:2055D00003F014F830F0010008BF6FF004041ED003F080F9054602F0D7FB01460D480F2237
:2055F000603030F80C7F6FB1A388BB4208D1406800680022854208BF0122A260002403E04B
:20561000521EEED14FF0FF34084602F0D2FD2046B0BDC046301A0020B0B5144D286800042D
:20563000070C21D001F08AFF114991F90720824205DD10F1800FB8BF6FF07F00C8718C88F9
:20565000BC4210D80A68D5F8D40F801A801C1F2888BF1F203F1B4008C7404FF6FF70E719D2
:20567000B84238BF071C8F80B0BDC04634100940742E0020BCB506AF388814460D4600287A
:2056900018BF0B2023D10846694602F08CFA012803D1002018800120BCBDBDF800704AF6DB
:2056B000015100207F1A0BD07F1E012F84BF18800A200CD801211980E96809782170BCBDA7
:2056D00006211980E9680A6822608988A180BCBD98B5134C0C342068011D4068406810B167
:2056F00080472168091D08680830016809B94768A7B10C4A1C321768002FFCD00023136096
:2057100029B1084680472068001D00680830406800B180470448503802F0A8F998BDC04663
:20573000101600200010044051000706F8B50746FAF7A0FF124C06462079E0B1401EC0B233
:205750002071C0B904F1C800082102F00FFD97B1E068703002F0DAF9E0680A4DC0683F1A36
:20577000286804F1A405B7FBF0F12846FAF78AFF2846FAF78BFF3046FAF780FFF8BDC046E6
:2057900010160020148D00001549096821280ADC212819D00C380FD00D380FD0001F0FD09D
:2057B000C01E0FD01AE0253810D0001F10D0401E10D0401E10D011E00868704748687047EB
:2057D00088687047C8687047086970474869704788697047C8697047086A7047002070470B
:2057F000F0010020F8B50646B08815460F46FEF7E5FC0446002D02D4281B0A2806DB336893
:20581000291B38460BA200F08BFD0419B08978B1002D06D4B06802F03FFD291B401D88425A
:2058300006DCB368291B384603A200F079FD04192046F8BD257000C02827257327290000CA
:2058500038B505466C68237AD4F8A810002203B9012263689847D4F8BC00D4F8C010814279
:2058700011D08069C4F8BC00D4F8BC102846FEF77FFDB0F1FF3F0ED10320207204F12C00CB
:2058900003F018F838BD0020C4F8A800C4F8BC00022001F0E3FA38BD38B50C4620B1416866
:2058B0000122A240114201D1022038BD914341600D480025231800EB8401C1F8945003F16C
:2058D00040010978FF291ABF406850F8211044F020410648FDF7C0FF20464FF0FF3102F077
:2058F000D5F9284638BDC046882C0020007FC76738B5134D95F8E100002410B91148007867
:2059100060B1FAF7B7FE95F8E310002906BF012185F8E3100124FAF7B1FE0CB1002038BD29
:20593000022001F0B3FA0E20FDF726FC01F05EFF01280EBF0120002085F8E20038BDC04674
:20595000501B0020C28C0000BCB506AF388814460D46002818BF0B2021D10846694602F0C0
:2059700022F9012803D1002018800120BCBDBDF800704BF6017100207F1A0BD07F1E012F74
:2059900084BF18800A200AD801211980E96809782170BCBD04211980E96809682160BCBDFF
:2059B000012838B51ED1012001F03AFC01281BD002F0ECFA0E4D0D480122322305F1E0019F
:2059D00000680A70B3FBF0F404B914463035284602F09CF828462146FAF754FE2846FAF75C
:2059F00055FE01E001F076F8002038BD148D0000501B0020084610B500F0005100F004007B
:205A1000084317D0012001F00BFC0E4C01280CD0094909686C3432222046B2FBF1F1FAF72F
:205A300031FE2046FAF732FE10BD044802F060FD0348046010BDC046148D0000750300009D
:205A5000001004404816002038B51248104C0168114D0C40E1430160A10908D34068800973
:205A700005D328464FF40051C83002F07FFB14F4602F0BD0284600F19C010A6804F460247C
:205A9000FC3014430C60002102F070FB38BDC04620000E00081004401016002098B5044627
:205AB000FAF7E8FD8446104890F8A310C90803D390F8A210A14213D0B0F8A0300B4F012207
:205AD00002FA04F11943A0F8A010391D0B6804F10C07BA4093430B600F680FB90021017044
:205AF0006046FAF7CBFD98BD1016002008100440DCB5044602F0EEFE01F080F9064602F0DF
:205B100075FD30F0010014BF002E6FF0040017D0606858B1B0F1FF3F05D0694601F056F923
:205B300030B107460BE04FF0FF3000E0002000907068009902F0C6FE002700B90127384691
:205B5000DCBDFEE78C4601461046104A08B571B1491E08D0491E18D1BCF1010F15D1521C6F
:205B70000078107008BDBCF1010F0ED1F8E7BCF1040F0AD1006802F108010860044800909A
:205B9000D0680B231032FEF7CFFA08BD6C1E002059590000F8B5124C6678E578182001F0FF
:205BB000F5FE071C19D00421002202F07FFB304601F0D4FD38727D720020B87204F14806C5
:205BD000FE6004F158033B6104F120027A6101F0EDFE024A394600F075FDF8BD0B87000029
:205BF000F41200202DE9F04104461148401C90F8008016460D46102001F0C8FE071C12D086
:205C10000421072202F052FB404601F0A7FD38727C72BD72FE6001F0C9FE044A394600F032
:205C300051FDBDE8F0810420BDE8F08135870000F4120020F8B5044602F04CFE00F0C0F8F9
:205C5000071C19D002F0A0F884460D480021543030F80C6F6EB94FF6F87202804760002513
:205C7000856021717868A060604602F0A2FA2846F8BD491C0F29EBD300F032FBF8BDC04633
:205C90003C1A00200F4908680028FCD1104A131D0D49186820F0030001430C480068C00886
:205CB0000CD2106810F0030F0AD041F003001860106800F003000328FAD101E041F0010171
:205CD000196070470C00684204000020B03F005000400340F8B516460C46FAF7CBFC02468D
:205CF0000F484178832554B1641E02D0641E10D00DE08179012904D0B0F8A01005E0876A0E
:205D10000FB9802506E0806A818B318002E0032500E031701046FAF7B1FC2846F8BDC046D1
:205D3000101600202DE998430446276E9946904607B1B8470020022100EA090001EA0801A7
:205D5000002808BF00290BD104F1580090E8060008EA010109EA0200002808BF002907D09C
:205D700004F1680080E8000304F1380002F0A6FDBDE89883F8B50446A1686068ADF1040659
:205D90000025086002F09EFC46F8040F002808BF6FF003000FD06D1CF4D0074D6E460027DD
:205DB00056F8040B55F8041BA368044A01F0EEFB7F1CF5D00020F8BD108D0000AD6D0000EB
:205DD0002DE9F843804601F0DFFF0F4C07250026814654F80C7F5FB93046C4F80080014671
:205DF000A6600A4602F022FD606018B900F078FA474501D1264601E06D1EEAD1484602F0C8
:205E1000D8F93046BDE8F8833C1A0020B0B5054602F060FD044602F0E9FB30F0010008BF8E
:205E30006FF0040414D001F0AFFF0A4A002132F80C7F4FB153681B689C4204BF29710024A1
:205E500004D0491C0F29F2D36FF0040402F0B1F92046B0BD901A002038B5114C01200E21C2
:205E700004F10902FDF7AAFD251D022005212A46FDF7A4FD05202A460146FDF79FFD032059
:205E900004212246FDF79AFD04202A460146FDF795FD06201C2104F11702FDF78FFD38BD93
:205EB000008B0000BCB506AF388814460D46002818BF0B201BD10846694601F074FE012815
:205ED00003D1002018800120BCBDBDF800004CF6C141814208D106201880E86801682160FF
:205EF0008088A0800020BCBD002018800A20BCBD38B50546287B00F00F00022818D10D4C30
:205F10002078012814D0FFF7F9FAA9686FF070458908A1EB900085420ADDB0F1704FBCBF88
:205F300005490844E168C96801F57A71814200DB002038BD10160020F6FFFF1F10B5017812
:205F5000A23902D02E391AD010BD4179132918D100890C4C01280AD12046F038817B0229ED
:205F700005D1F03002F0F9FB01F068FF10BD052000F0B8FA0146204600F050FC10BDFAF7A2
:205F900089FB10BDE4130020F8B506460F4D104F7388002417E0A00000EBC400321851686D
:205FB0009068D26852B9AF420BD00A7855F822200346491C08461946904701E0FDF780FF31
:205FD0007388641CA4B2A342E5DCF8BD98950000A4950000F8B506AF3F880D460646E7B9B7
:205FF000022B18D15078147804EB002434F001000FD1E9680968304602F090F9844208BFCF
:2060100000200BD0E96809683046224601F01EFAF8BD8020F8BD0D20F8BD0B20F8BDFEE71B
:206030003EB545688468684602F0FCFB0B480A4BE968026853F8211020681368002201B177
:20605000012201999847064901208861054A10600860C8603EBDC046F48B0000AC010010AF
:206070000428004010040542104A1068C0F30F314BF69A10884207D111680B20B0EB117F28
:2060900014BF0020042070472430884208BF01200BD04BF64130884208BF032005D02138AD
:2060B00088420CBF02204FF0FF30704718130050F0B50D4614461F460646ADF1240D002186
:2060D00024220823684602F00DFC00200590ADF8100008484FF47A71A2B26B4600680697A4
:2060F000B1FBF0F080B229464243304602F0F6FB09B0F0BD148D00002DE9F04104461E4689
:2061100090460D46142001F041FC071C13D03246032102F0CBF83C81002038744046FD6021
:2061300001F01CFB787401F041FC044A394600F0C9FABDE8F0810420BDE8F081017E0000DE
:2061500070B5104C0646204602F087FA0025B0B9204602F0FAFA0446A06806420AD0E068F3
:20617000226900210346304698470546012D08BF012005D0204602F0EAFA041CECD1284608
:2061900070BDC046501B00200F4A01461068ADF1080D08B9002010600846801E12D0801EA9
:2061B00010D0401E07D001208DF801009DF801000028FBD106E001208DF800009DF8000068
:2061D0000028FBD102B07047940F00200E48B0B54578848A0E2001F0D9FB071C11D00421ED
:2061F0000A2202F063F8284601F0B8FA38727C811320387301F0DAFB044A394600F062FAA1
:20621000B0BD0420B0BDC046F41200202F8700002DE9F04102F0F6F90D4D2B688046A3B15F
:2062300005F194060024012707FA04F018EA000F07D056F8240020B1026812B121469047E7
:206250002B68641CE4B29C42EED3BDE8F081C046882C00200C4885460C4885446F460720DE
:206270008743BD460A486F4607600A48002803D07946491D8E460047FDF794FC01F046FF8C
:2062900002F0CCFAFEE7C046483F00200004000040220020218600002DE9F04104460E4890
:2062B000057890460E46102001F070FB071C10D03246042101F0FAFF284601F04FFA3872BF
:2062D000FC6001F073FB3946424600F0FBF9BDE8F0810420BDE8F081F512002000BF70471B
:2062F00008B5FFF7FBFFFEE738B50546094800688047094C201D006810B101462846884705
:20631000206800B18047054800688047FFF7E8FF38BDC046242200202C22002028220020DB
:206330000CB4F0B505AF061C0C4627F00303ADF1040D03F1040304D03068002818BF051C6D
:2063500000D100253A68284602F060F8844238BF601E15B131684118316001B0BDE8F040D3
:2063700002B07047D0B504463C20FEF717F9071C14D000213C22082302F06CFA207AB861B8
:2063900060893862E068386160683946002202F05DFA0646384600F0A9FE16B96FF0030045
:2063B000D0BD0020D0BD704700B500213C220823ADF13C0D684602F04DFA094800F5B27146
:2063D00007914FF4DC71089103210691054900236A4600F58A7002F01DFA0FB000BDC04696
:2063F000F41200207128000070B5FAF743F906460C48E030007850B108480068C068054628
:2064100007480024342101222346A84700B101243046FAF733F9204670BDC046A401001072
:2064300000A00C40501B00200E4938B5CA68824210D1487801280DD1FAF71CF90546084852
:2064500001F014FB04462846FAF718F904F0FF00012802D06FF07F0038BD4FFAA4F038BDDF
:2064700001000304101600201CB50A1C17D000230124E407A04238BF041C944201D95200B2
:20649000FBE790425B41904228BF801A914201D25208F6E7191C021C081C111C1CBD00B13E
:2064B000C843FDF7A8FD1CBD00B500213C220823ADF13C0D684602F0CDF9084800F1600101
:2064D00007914FF48061089101210691044900236A46103002F09EF90FB000BDD006002043
:2064F000C14800003EB505460020ADF804000A2001F04CFA041C0DD00421312201F0D6FEE1
:20651000258101F053FA01A90223044A0091214600F0F6F8BDF804003EBDC046178700003C
:20653000F8B5044616460D46142001F02FFA071C0FD00421022201F0CCFFBC60BD811020C6
:20655000B8733E6101F032FA034A394600F0BAF8F8BD0420F8BDC046B984000070B5044696
:20657000606810F07F4F18BF6FF0020011D101F00BFC084D0646287828B1686800F016FD76
:20659000606800F02AFD60686860304601F011FE002070BD1C2200200D4938B5D1F8EC3231
:2065B00009681B3800FB00F409060A1643F3072100FB01F5190660430916614342438912F5
:2065D00001EBE50101EBA24000EB234038BDC046A41000500C49086820F0020040F4007043
:2065F00008600A48032140F8041C41F230018160012101605022826001604FF4CA62826087
:20661000016040F80C1C7047000004600C410440F0B5044605AFADF10C0D03B9084B97E815
:2066300060008DE86000FBF789FD011C44BF05A003C802D42046FEF7FBF803B0F0BDC04683
:20665000355D0000000000000000008000B500213C220823ADF13C0D684602F0FBF80848EF
:2066700000F1C80107914FF48061089101210691044900236A46783002F0CCF80FB000BD48
:2066900008020020B546000038B50446F9F7F2FF05460B48401C007868B1204601F0E6F9EC
:2066B00004462846F9F7EAFF04F0FF04012C0CBF8120022038BD2846F9F7E0FF012038BD3F
:2066D000101600201CB51446CA78012A02D18A880A4B1A8000F078FD30B90020009069464B
:2066F000204601F06FFA18B101F024FB044603E00098447801F002FC20461CBD10220020F0
:2067100038B51C46154600F05FFDB0B9002000906946284601F056FA78B90099487848B971
:206730000846C1798C4205D10146049889682246FDF7C6FB009801F0E1FB38BDF8B50446DB
